:020000040800F2
:100000000080002021C9000871C9000871C90008DA
:1000100071C9000871C9000871C90008000000001A
:1000200000000000000000000000000071C900088E
:1000300071C900080000000071C90008697C00084F
:1000400071C9000871C9000871C9000871C90008A8
:1000500071C9000871C9000871C9000871C9000898
:1000600071C9000871C9000871C9000871C9000888
:1000700071C9000871C9000871C9000871C9000878
:1000800071C9000871C9000871C9000871C9000868
:100090006D85000871C9000871C9000871C90008A0
:1000A00071C9000871C9000871C9000871C9000848
:1000B00071C9000871C9000871C9000871C9000838
:1000C00071C9000871C9000871C9000871C9000828
:1000D00071C9000871C9000871C9000871C9000818
:1000E00071C9000871C9000871C9000871C9000808
:1000F00071C9000871C9000871C9000871C90008F8
:1001000000000000000000000000000071C90008AD
:1001100071C9000871C9000871C9000871C90008D7
:1001200071C9000871C9000871C9000871C90008C7
:1001300071C9000871C9000800000000000000003B
:1001400071C9000871C9000871C9000800000000E9
:10015000000000000000000000000000000000009F
:10016000000000000000000071C9000871C900080B
:1001700071C900080000000000000000000000003D
:080180000000000071C9000835
:1001C0000348044B834202D0034B03B118477047E6
:1001D0005C0C00205C0C0020000000000548064973
:1001E0000B1AD90F01EBA301491002D0034B03B145
:1001F000184770475C0C00205C0C002000000000D9
:1002000010B5064C237843B9FFF7DAFF044B13B15E
:100210000448AFF300800123237010BD5C0C002064
:100220000000000088C9000808B5044B1BB1044950
:100230000448AFF30080BDE80840CFE700000000AD
:10024000600C002088C900082DE9F0478246DFF8DD
:10025000C891C9F80010DFF8C481714F396802FBFA
:1002600001F2C8F80020DFF8B481D8F80040002C73
:1002700000D003E0684C20680BF0E0FC4FF0000079
:10028000BDE8F047704700BF2DE9F04704460D4632
:1002900016464FF000074FF0070948460BF0DCFC0C
:1002A000B9F10109F9DA15F807804146B9B1A8F1A9
:1002B000300840460BF0C2FC204600F0A5F80BF0D9
:1002C0001FFD012802D1B0450CD112E040460BF0D1
:1002D000C3FC204600F098F807F10107E3E74FF070
:1002E0000007E0E740460BF0B7FC30460BF0A6FCF9
:1002F0001EE040460BF0B0FC4FF0020A4FF0070939
:1003000048460BF09BFCB9F10109F9DA204600F0F0
:100310007BF84FF0070948460BF09EFCB9F1010944
:10032000F9DA204600F070F8BAF1010AE6DCFFE7DE
:100330004FF00000BDE8F047704700BFE0B505464C
:100340000E464FF0070738460BF094FC013FFADAEF
:10035000304600F059F84FF0070738460BF08AFC9A
:10036000013FFADA304600F04FF8013DE9DC4FF08A
:100370000000BDE8E040704700B508444FF00000C1
:100380000BF078FC4FF001000BF074FC4FF0020012
:100390000BF070FC4FF003000BF06CFC4FF004000E
:1003A0000BF068FC4FF005000BF064FC4FF006000A
:1003B0000BF060FC4FF007000BF05CFC104600F007
:1003C00023F84FF000000BF055FC4FF001000BF04C
:1003D00051FC4FF002000BF04DFC4FF003000BF00E
:1003E00049FC4FF004000BF045FC4FF005000BF00A
:1003F00041FC4FF006000BF03DFC4FF007000BF006
:1004000039FC5DF804EB704720B40546013DFDDA88
:100410004FF0000020BC70472D0000202500002078
:100420003100002000B54FF001000BF023FC09491A
:1004300008685DF804EB704700B50649086800F1EC
:10044000010008605DF804EB704700BF00B500BD17
:10045000704700003500002081F0004102E000BF3D
:1004600083F0004330B54FEA41044FEA430594EA74
:10047000050F08BF90EA020F1FBF54EA000C55EAAF
:10048000020C7FEA645C7FEA655C00F0E2804FEA80
:100490005454D4EB5555B8BF6D420CDD2C4480EA62
:1004A000020281EA030382EA000083EA010180EA92
:1004B000020281EA0303362D88BF30BD11F0004FE0
:1004C0004FEA01314FF4801C4CEA113102D0404216
:1004D00061EB410113F0004F4FEA03334CEA133351
:1004E00002D0524263EB430394EA050F00F0A78069
:1004F000A4F10104D5F1200E0DDB02FA0EFC22FA64
:1005000005F2801841F1000103FA0EF2801843FA57
:1005100005F359410EE0A5F120050EF1200E012A48
:1005200003FA0EFC28BF4CF0020C43FA05F3C01886
:1005300051EBE37101F0004507D54FF0000EDCF1FF
:10054000000C7EEB00006EEB0101B1F5801F1BD3A8
:10055000B1F5001F0CD349085FEA30004FEA3C0CAC
:1005600004F101044FEA445212F5800F80F09A80A2
:10057000BCF1004F08BF5FEA500C50F1000041EBA6
:10058000045141EA050130BD5FEA4C0C404141EBAA
:100590000101013C28BFB1F5801FE9D291F0000FA5
:1005A00004BF01460020B1FA81F308BF2033A3F154
:1005B0000B03B3F120020CDA0C3208DD02F1140C4B
:1005C000C2F10C0201FA0CF021FA02F10CE002F186
:1005D0001402D8BFC2F1200C01FA02F120FA0CFC7F
:1005E000DCBF41EA0C019040E41AA2BF01EB0451C8
:1005F000294330BD6FEA04041F3C1CDA0C340EDCC6
:1006000004F11404C4F1200220FA04F001FA02F308
:1006100040EA030021FA04F345EA030130BDC4F1C6
:100620000C04C4F1200220FA02F001FA04F340EABB
:100630000300294630BD21FA04F0294630BD94F06C
:10064000000F83F4801306BF81F480110134013D53
:100650004EE77FEA645C18BF7FEA655C29D094EAC4
:10066000050F08BF90EA020F05D054EA000C04BF42
:100670001946104630BD91EA030F1EBF002100202D
:1006800030BD5FEA545C05D14000494128BF41F0CC
:10069000004130BD14F580043CBF01F5801130BD30
:1006A00001F0004545F0FE4141F470014FF00000BB
:1006B00030BD7FEA645C1ABF194610467FEA655C6C
:1006C0001CBF0B46024650EA013406BF52EA03350E
:1006D00091EA030F41F4002130BD00BF90F0000FFC
:1006E00004BF0021704730B54FF4806404F1320438
:1006F0004FF000054FF0000150E700BF90F0000FF1
:1007000004BF0021704730B54FF4806404F1320417
:1007100010F0004548BF40424FF000013EE700BFE7
:1007200042004FEAE2014FEA31014FEA02701FBF77
:1007300012F07F4393F07F4F81F06051704732F0A9
:100740007F4208BF704793F07F4F04BF41F4002100
:10075000704730B54FF4607401F0004521F000415E
:100760001CE700BF50EA010208BF704730B54FF0E8
:1007700000050AE050EA010208BF704730B511F0E9
:10078000004502D5404261EB41014FF4806404F121
:1007900032045FEA915C3FF4D8AE4FF003025FEAA7
:1007A000DC0C18BF03325FEADC0C18BF033202EB2B
:1007B000DC02C2F1200300FA03FC20FA02F001FA85
:1007C00003FE40EA0E0021FA02F11444BDE600BF28
:1007D0004FEA410212F5001215D211D56FF4787369
:1007E000B3EB625212D94FEAC12343F0004343EA0C
:1007F000505311F0004F23FA02F018BF40427047E7
:100800004FF00000704750EA013005D111F0004070
:1008100008BF6FF0004070474FF00000704700BF06
:10082000002301461A46184601F0E6BE014B18683F
:10083000704700BF4000002038B5084B084D5B1BD7
:100840009C1007D0043B1D44013C55F804399847DF
:10085000002CF9D1BDE838400CF09CB8E4C4010884
:10086000E0C4010870B50D4E0D4D761BB61006D0D4
:10087000002455F8043B01349847A642F9D1094EAB
:10088000094D761B0CF080F8B61006D0002455F800
:10089000043B01349847A642F9D170BDD8C4010881
:1008A000D8C40108E0C40108D8C40108830730B5E2
:1008B00048D0541E002A3FD0CAB2034601E0013C92
:1008C0003AD303F8012B9D07F9D1032C2DD9CDB2D2
:1008D00045EA05250F2C45EA054536D9A4F1100255
:1008E00022F00F0C03F1200EE6444FEA121C03F134
:1008F000100242E9045542E9025510327245F8D11E
:100900000CF1010214F00C0F03EB021204F00F0CB7
:1009100013D0ACF1040323F003030433134442F86F
:10092000045B9342FBD10CF003042CB1CAB21C440B
:1009300003F8012B9C42FBD130BD64461346002CCA
:10094000F4D1F9E703461446BFE71A46A446E0E7A8
:100950000EB400B582B003AB816853F8042B019349
:1009600000F012FB02B05DF804EB03B0704700BF6B
:100970000FB400B5074983B004AB086853F8042BE3
:100980008168019300F000FB03B05DF804EB04B054
:10099000704700BF40000020826804F0ABBD00BF7C
:1009A000024B01461868826804F0A4BD4000002094
:1009B00070B5044688B008460D4600F081F9154E22
:1009C000A26B059001214318CDE9066104A802211C
:1009D00004950393A56801900291B2B1B5F90C306A
:1009E0009A0406D46A6E43F4005322F40052AB8199
:1009F0006A6601AA2946204603F09CF9002814BF24
:100A00004FF0FF300A2008B070BD204603F01CF8FC
:100A1000E4E700BFACC30108024B01461868FFF7CA
:100A2000C7BF00BF400000202DE9F0435A4CD4F866
:100A3000008083B004460E4617461D46B8F1000FED
:100A400003D0D8F83830002B68D0022F05D0012F02
:100A500000F28E80002DC0F28B802146404602F0CD
:100A6000C9FE216B41B104F14003994202D04046D6
:100A700003F05AF800232363B4F90CC000231CF0E0
:100A8000800FA361636051D12CF44A6C2CF0030CED
:100A9000022FA4F80CC057D001AB6A46214640464D
:100AA00003F07EFBA3891843A08125B326B3D8F8B1
:100AB00038307BB3009BB4F90CC02660AB421CBF3E
:100AC0004CF4006CA4F80CC0012F04BF4CF0010CD6
:100AD000A4F80CC01CF00800C4E904651FFA8CF3EC
:100AE00020D013F001003FD000206D42A060A5612E
:100AF00003B0BDE8F083009D284603F081FB064665
:100B0000002838D0A38943F08003A381D8F8383077
:100B1000002BCFD1404602F097FFCBE7404602F0D2
:100B200093FF92E7A06003B0BDE8F08321694046DF
:100B300002F0FAFFB4F90CC02CF44A6C2CF0030C50
:100B4000022FA4F80CC0A7D1002004F143034CF0FD
:100B5000020C00210122C4E90432A4F80CC0A160F7
:100B6000236003B0BDE8F083A56003B0BDE8F08367
:100B70004FF0FF30D7E7DDF80090A94504D0484694
:100B800003F03EFB064620B9B4F90CC04FF0FF302D
:100B9000DBE74D46B6E700BF4000002010B5114C22
:100BA00086461EF801CB14F80C3003F00303012B2A
:100BB00011F8013B624608BF0CF1200214F803C093
:100BC0000CF0030CBCF1010F184604D0D21A06D168
:100BD000002BE6D110BD2033D01AE2D010BD104654
:100BE00010BD00BF35CE000880EA0102844612F035
:100BF000030F4FD111F0030F32D14DF8044D11F016
:100C0000040F51F8043B0BD0A3F101329A4312F0C8
:100C1000803F04BF4CF8043B51F8043B16D100BFA1
:100C200051F8044BA3F101329A4312F0803FA4F132
:100C300001320BD14CF8043BA24312F0803F04BFB9
:100C400051F8043B4CF8044BEAD023460CF8013B26
:100C500013F0FF0F4FEA3323F8D15DF8044B7047D0
:100C600011F0010F06D011F8012B0CF8012B002A0E
:100C700008BF704711F0020FBFD031F8022B12F0FD
:100C8000FF0F16BF2CF8022B8CF8002012F47F4FB8
:100C9000B3D1704711F8012B0CF8012B002AF9D1C0
:100CA000704700BF000000000000000000000000CE
:100CB0000000000000000000000000000000000034
:100CC00090F800F06DE9024520F007016FF0000C8C
:100CD00010F0070491F820F040F049804FF0000434
:100CE0006FF00700D1E9002391F840F000F108000F
:100CF00082FA4CF2A4FA8CF283FA4CF3A2FA8CF347
:100D00004BBBD1E9022382FA4CF200F10800A4FAAD
:100D10008CF283FA4CF3A2FA8CF3E3B9D1E9042301
:100D200082FA4CF200F10800A4FA8CF283FA4CF338
:100D3000A2FA8CF37BB9D1E9062301F1200182FAF2
:100D40004CF200F10800A4FA8CF283FA4CF3A2FAF8
:100D50008CF3002BC6D0002A04BF04301A4612BA06
:100D6000B2FA82F2FDE8024500EBD2007047D1E909
:100D7000002304F00305C4F100004FEAC50514F098
:100D8000040F91F840F00CFA05F562EA05021CBF69
:100D900063EA050362464FF00004A9E7024A1268BD
:100DA00001235C3200F002B840000020F0B4074696
:100DB00010B33E468C4616F8010B01E0A04216D057
:100DC0001CF8014B002CF9D1D8B116F8015B0C4688
:100DD00001E0002BF9D014F8013B9D42F9D14DB14F
:100DE000002306F8013C16603846F0BC70475BB142
:100DF0003746DEE72E46F6E71768002FD9D138468A
:100E0000F3E7F0BC10607047166038463B70ECE7C3
:100E10000123FFF7CBBF00BF2DE9F04707464B4842
:100E20000E46354616F801CB10F80C4014F00804B5
:100E3000F7D1BCF12D0FE64658D0BCF12B0F04BF03
:100E400096F800E0AE1C5BB1102B54D04FF0FF3889
:100E5000B8FBF3F803FB08FA6FEA0A0A994608E0C0
:100E6000BEF1300F5AD00A23DFF8E4804FF0050AB4
:100E700099460025284607E0404515D829D009FBAA
:100E800000C0012516F801EBAEF1300CBCF1090FE2
:100E900006D9AEF1410CBCF1190F08D8AEF1370CF0
:100EA00063450DDD002DE7DA4FF0FF35EAE7AEF1DF
:100EB000610CBCF1190F03D8AEF1570C6345F1DC9E
:100EC000002D0BDB04B140420AB16DB91160BDE8E1
:100ED000F087D445D3DD4FF0FF35D3E722233B60C5
:100EE0004FF0FF30002AF2D0711EEFE796F800E0D5
:100EF0000124AE1CA7E7BEF1300F21D1307800F0FD
:100F0000DF00582816D14FF0100996F801E04FF095
:100F10000F0A02366FF070484B46AAE7337803F0A9
:100F2000DF03582BEFD008234FF0070A6FF060481B
:100F300099469EE799466FF070484FF00F0A98E780
:100F40004FF00F0A6FF07048994692E735CE0008CF
:100F50009999991960E700BF10B4044C8446134670
:100F600020685DF8044B0A46614655E740000020C2
:100F700010B4044C8446134620685DF8044B0A46BE
:100F8000614649E7400000202DE9F04F2DED068B2A
:100F9000BBB01C468846914609EE100A054603F090
:100FA00087F80368109318460994FFF789FE0E909E
:100FB0001DB1AB6B002B00F04282B8F90C209504F8
:100FC00093B20AD442F40053D8F86420A8F80C3045
:100FD00022F400529BB2C8F86420180740F1AB809D
:100FE000D8F81020002A00F0A68003F01A030A2B7C
:100FF00000F0B0809FED947B0023CDE91E338DED92
:101000000C7B2AAA0B931D9292460F931193079380
:1010100099F80030002B00F0A4814C4604E014F84D
:10102000013F002B00F0E580252BF8D1B4EB09053A
:1010300040F0E3802378002B00F0938100234FF0F1
:10104000FF32CDE9052365788DF8573004F10109A9
:1010500018469B4609F10109A5F12002582A00F221
:10106000F780DFE812F07F02F500F5007A02F50064
:10107000F500F500F500F500F5002D027502F5000C
:1010800038023D02F500700259005900590059001C
:1010900059005900590059005900F500F500F500B4
:1010A000F500F500F500F500F500F500F500570234
:1010B0008901F5008901F500F500F500F500B6029B
:1010C000F500F5009800F500F500F500F500F500D5
:1010D0008800F500F5009502F500F500F500F50033
:1010E000F500F500F500F500F500F5008702F001C8
:1010F000890189018901BB02F001F500F500EC02CC
:10110000F500D6029A00C502C002F5001B03F500E7
:101110008A00F500F500F902A5F13002002119F866
:10112000015B01EB810102EB4101A5F13002092ACB
:10113000F5D9069190E719EE100A414601F0F2F94F
:10114000002841F02681B8F80C3003F01A030A2B6E
:101150007FF450AFB8F90E30002BFFF64BAF19EE0D
:10116000100A23464A4641463BB0BDEC068BBDE81B
:10117000F04F01F0A1B94BF0100B1BF0200100F073
:101180005081099B073323F00703596853F8080B74
:10119000099301230EE04BF0100B1BF0200100F02F
:1011A0003381099B073323F00703596853F8080B71
:1011B0000993002300248DF85740059A561C00F02F
:1011C00091822BF08006039650EA010640F0888257
:1011D000002A40F00D83002B40F01E851BF0010318
:1011E000089300F0948530238DF8A7300DF1A70601
:1011F0009DE2B4EB090500F0B4801F9B2B441F93C4
:101200001E9B0133072BCAE900951E9305DC0AF1EA
:10121000080A079B2B4407930CE719EE100A1DAA36
:10122000414604F033FC18B90DF1A80AF1E7B046C5
:10123000B8F80C305B0601F1AC8007983BB0BDEC10
:10124000068BBDE8F08F00BF00000000000000002A
:10125000002B40F0E587002D00F0838000238DF8FF
:10126000573001238DF880500493089320AE00235B
:10127000CDF80CB005930A93039B13F0020302D040
:10128000049A02320492039A12F0840B05D1069A52
:101290000499571A002F00F3A2831F9C9DF8572032
:1012A0008AB11E9A0DF1570101320134CAF80010BB
:1012B000072A4FF001011F941E92CAF8041000F390
:1012C000DD830AF1080A83B11E9B16AA013302349A
:1012D000CAF80020072B4FF002021F941E93CAF891
:1012E000042000F3DA830AF1080ABBF1800F00F052
:1012F0009B82059B089AA3EB020BBBF1000F00F346
:10130000D682039BDF0500F11B82089BCAF80430DC
:101310001C441E9BCAF800600133072B1F941E93C8
:1013200000F350830AF1080A039B5A0705D5069B70
:10133000049A9D1A002D00F3BD83DDE9062304996C
:101340008A42ACBF9B185B180793002C40F0EA82DE
:1013500000231E9399F800300DF1A80A002B7FF4AA
:101360005CAE1F9B002B3FF463AF19EE100A1DAA61
:10137000414604F08BFB5BE7002B40F0F687099BAE
:10138000073323F00703B3EC027B8DED0C7BDDE923
:101390000C67099327F0004308EE903A08EE106AB4
:1013A000B94B51EC180B4FF0FF3206F0E1F9002871
:1013B00040F0B484B44B51EC180B4FF0FF3206F000
:1013C000B9F9002840F0AA840022002330463946AB
:1013D00006F0A6F9002840F002879DF85740AB4E72
:1013E0002BF080030393AA4B0022472DC8BF1E4653
:1013F0000323CDE9043208930A92002C3FF43CAF5A
:10140000049B0133049337E71BF0100352D11BF008
:1014100040014FD0099A52F8040B0992194680B244
:10142000C8E61BF010033FD11BF040013CD0099AE5
:1014300052F8040B0992194680B20123BAE62846F5
:1014400002F002FBB9E5002B40F09F871BF0200F54
:10145000099B68D0073323F007031A465B6852F8EC
:10146000080B09921946002BC0F23D84059B0133FD
:1014700000F005852BF08003039350EA01039DF8EB
:10148000574000F0C583DDF80CB00A2871F1000365
:1014900080F0FC84303001238DF8A700CDF80CB02B
:1014A00008930DF1A70642E1099B53F8040B099339
:1014B00001237FE6099B53F8040B09930B4679E659
:1014C000099A52F8041B0691002980F21B840699A0
:1014D00009924942069199F800504BF0040BB9E586
:1014E000494611F8015B2A2D00F0C587A5F13002AD
:1014F000092A894698BF002100F2338719F8015B59
:1015000001EB810102EB4101A5F13002092AF5D975
:101510000591A1E5002B40F030874BF0100B1BF03C
:10152000200F099B96D153F8040B09931BF0100F61
:1015300040F0D4831BF0400F00F0D08340F3C03163
:101540000B4600B28FE799F800504BF0800B81E515
:1015500099F8005001232B207CE599F800504BF0BE
:10156000010B77E599F8005000287FF473AD012353
:1015700020206FE5099B00228DF8572053F8042B9B
:10158000099301238DF880200493089320AE6EE622
:10159000002B40F0E2863F4B0F931BF0200163D0FD
:1015A000099B073323F00703596853F8080B099385
:1015B0001BF0010F0BD050EA010308D030238DF847
:1015C00058308DF859504BF0020B0223F2E50223FC
:1015D000F0E599F800504BF0080B3BE599F8005006
:1015E0004BF0400B36E599F800504BF0200B31E5FD
:1015F000099B53F8040B0993302378258DF8583054
:10160000254B0F934BF0020B8DF85950002102230C
:10161000D0E5002B40F0AD861BF0200F40F0258474
:101620001BF0100F40F09D841BF0400F00F09984D8
:10163000099B079953F8042B09931180E8E499F862
:1016400000506C2D03BF99F801504BF0200B09F1AD
:1016500001094BF0100BFDE4002B40F092860E4B7D
:101660000F931BF020019BD11BF0100340F031833E
:101670001BF0400100F02D83099A52F8040B0992E7
:10168000194680B294E700BFFFFFEF7FB0C30108A7
:10169000B4C30108D4C30108C0C30108099C059B59
:1016A00054F8046B00278DF85770002E00F0278443
:1016B0005A1C00F023851A463946304603F060F87C
:1016C000002800F03286831B089323EAE373099411
:1016D00005979DF85740CDF80CB004930A978CE617
:1016E000DDF80CB0012B3FF4D0AE022B00F0888067
:1016F0002AAE00F00703C00840EA4170C908303341
:1017000050EA0107324606F8013DF2D11BF0010F05
:1017100000F08480302B00F081803023023A06F8FC
:10172000013C2AAB9B1ACDF80CB008931646059BDA
:10173000089A9342B8BF1346049300230A935CE6C9
:10174000652D40F3F980DDE90C010022002305F04E
:10175000DDFF002800F0E9811E9BC54ACAF8002081
:10176000013301340122072B1F941E93CAF8042071
:1017700000F36B840AF1080A179B0B9A934280F2DC
:10178000BC820E9B109A1C44CAE900231E9B1F9426
:101790000133072B1E9300F3A5830AF1080A0B9B64
:1017A0005D1E002D7FF7C0AD102D1E9BB14F40F385
:1017B000408419EE10BA102605E00AF1080A103D1F
:1017C000102D40F3368401331034072BCAE900761C
:1017D000CDE91E34F1DD1DAA4146584604F056F904
:1017E00000287FF425ADDDE91E340DF1A80AE6E7F7
:1017F000012B00F04885022BDDF80CB07FF478AFA8
:101800000F9A2AAE00F00F030009D35C06F8013DE1
:1018100040EA0170090950EA0103F3D12AAB9B1B8E
:10182000CDF80CB0089382E7069B049AA3EB020B59
:10183000BBF1000F7FF75DADBBF1100F1E9A8D4F0E
:1018400027DD2146102319EE104A06E0ABF1100BFC
:10185000BBF1100F0AF1080A1ADD01321031072A14
:10186000CAE90073CDE91E21F0DD1DAA41462046DC
:101870000DF1A80A04F00AF900287FF4D9ACABF105
:10188000100BBBF1100FDDE91E214FF01003E4DC5B
:101890000C4601325C44072ACDE91E24CAF80070C8
:1018A000CAF804B000F3DF830AF1080A21E5BBF1AE
:1018B000100F1E9A6F4F27DD2146102319EE104A94
:1018C00006E0ABF1100BBBF1100F0AF1080A1ADDAC
:1018D00001321031072ACAE90073CDE91E21F0DD7B
:1018E0001DAA4146204604F0D1F800287FF4A0ACA0
:1018F000ABF1100BBBF1100FDDE91E210DF1A80AB1
:101900004FF01003E4DC0C4601325C44072ACDE9B9
:101910001E24CAF80070CAF804B000F3CC810AF1A2
:10192000080AEEE419EE100A1DAA414604F0AEF8CA
:1019300000283FF40DAD7BE40B9B012B40F371813C
:101940001E9DCAF80060013501340123072D1F9444
:101950001E95CAF8043000F30C830AF1080A0E9BA6
:10196000109A01351C44072DCAE90023CDE91E5405
:1019700000F30D830AF1080ADDE90C0100220023BF
:1019800005F0C4FE002840F06B810B9B0135013B44
:1019900001361C44072DCAF800601E95CAF80430B1
:1019A0001F9400F34F810AF1080A119BCAF8043012
:1019B00001351C44072D19ABCDE91E54CAF800307F
:1019C0007FF7B0AC19EE100A1DAA414604F05EF88C
:1019D00000287FF42DAC1F9C0DF1A80AA4E4102F61
:1019E000DDE91E2134DD1293CDF84C901024B14670
:1019F0000B464646B8462F4619EE105A06E0A8F1A7
:101A00001008B8F1100F0AF1080A19DD01321A495D
:101A10001033072ACAE90014CDE91E23EFDD1DAA01
:101A2000314628460DF1A80A04F030F800287FF46A
:101A3000FEABA8F11008B8F1100FDDE91E23E5DCBC
:101A40003D4619464746129BB0464E46DDF84C903F
:101A5000CAF8047001327C18072A0749CAF8001036
:101A6000CDE91E2400F3D5820AF1080A16E400BF6E
:101A7000F0C301084CCF00083CCF000819EE100A53
:101A80001DAA4146129304F001F800287FF4D0AB60
:101A90001F9C129B0DF1A80A15E419EE100A1DAA4D
:101AA000414603F0F3FF00287FF4C2AB1F9C0DF109
:101AB000A80A1AE4102D1E9B20DD19EE107A1026BC
:101AC00004E0103D102D0AF1080A17DD0133914A98
:101AD0001034072BCAE90026CDE91E34F1DD1DAA1A
:101AE000414638460DF1A80A03F0D0FF00287FF4E4
:101AF0009FAB103D102DDDE91E34E7DC0133854A34
:101B0000CAF804502C44072BCDE91E34CAF8002033
:101B10007FF713AC19EE100A1DAA414603F0B6FF79
:101B200000287FF485AB1F9C07E41799002940F338
:101B30003C82DDE90A379F42A8BF1F46002F0BDD1C
:101B40001E9B01333C44072BCAE900671F941E9378
:101B500000F3CB830AF1080A0A9D002FA8BFED1BF2
:101B6000002D00F3D581179D0B9B9D4280F2AE8125
:101B70000E9B109A1C44CAE900231E9B1F9401333C
:101B8000072B1E9300F3A3830AF1080A0B9B0A9A02
:101B90005D1B9F1AAF42A8BF2F46002F0EDD1E9B74
:101BA000CAF80470013316443C44072BCAF800609D
:101BB0001F941E9300F3A6830AF1080A002FA8BF02
:101BC000ED1B002D7FF7B0AB102D1E9B524F40F345
:101BD000308219EE10BA102605E00AF1080A103D0D
:101BE000102D40F3268201331034072BCAE900760A
:101BF000CDE91E34F1DD1DAA4146584603F046FFEB
:101C000000287FF415ABDDE91E340DF1A80AE6E7E4
:101C1000059B002B40F037830023059308932AAEE1
:101C200085E5039BD9073FF58BAE1E9DCAF8006082
:101C3000013501340123072D1F941E95CAF8043085
:101C40007FF7B1AE19EE100A1DAA414603F01EFF40
:101C500000287FF4EDAADDE91E540DF1A80AA4E6E0
:101C60000B9B5E1E002E7FF7A0AE102E2A4F40F376
:101C70005782CDF814904FF0100B19EE109A05E032
:101C80000AF1080A103E102E40F348820135103444
:101C9000072DCAE9007BCDE91E54F1DD1DAA41469E
:101CA000484603F0F3FE00287FF4C2AADDE91E5483
:101CB0000DF1A80AE6E719EE100A1DAA414603F045
:101CC000E5FE00287FF4B4AA1F9C0DF1A80AFFF7D7
:101CD00018BB099B53F8040B099369E4C1170B4621
:101CE000002BBFF6C3AB40424FF02D0461EB410126
:101CF0008DF857400123FFF760BA039BDD077FF59E
:101D000013AB3EE599F800500992FFF7A3B92AAE4C
:101D10000DE500BF3CCF00084CCF0008DDE90C0109
:101D200002460B4605F024FD002840F06583059B24
:101D3000013325F0200700F0F582472F00F0818263
:101D4000DDE90C014BF4807200290392C0F24C8251
:101D50009DED0C7B00231293B0EE47AAF0EE67AA2C
:101D6000662D00F0E981462D00F0E681B0EE4A0ACA
:101D7000F0EE6A0A452F0ABF059B059C5C1C1BAB55
:101D8000019318AB009319EE100A17AB22460221FB
:101D900000F0FAFC672D064640F03D821BF0010F73
:101DA00040F03C821B9B472FA3EB06030B9340F0B4
:101DB0006E83179B0A93D91C03DB059A934240F369
:101DC0007882023D0A9A8DF86450531E002B1793B7
:101DD000B6BFC2F101032B222D22092B8DF86520FD
:101DE00040F3F5820DF17304C04F2246104687FB85
:101DF0000321DA17C2EBA10202EB8201A3EB41013E
:101E0000303100F8011C19466329134600F1FF32F6
:101E1000ECDC3033D9B2831E9C4202F8011C40F244
:101E2000278313460DF1660201E013F8011B02F847
:101E3000011B9C42F9D10DF175030DF166021B1ACD
:101E4000134419AA9B1A11930B9A119B012A13444C
:101E5000089340F3C882089B0E9A1344089323EA20
:101E6000E373049300230A939EE1099B079853F8B8
:101E7000041B0993C217C1E90002FFF7C9B80A2879
:101E800071F100039DF85740FFF404ABCDF80C90BE
:101E90002AAEA1460A22002304460F4605F07EFC26
:101EA000303206F8012D0023204639460A2205F07B
:101EB00075FC0A2C77F10003ECD22AAB9B1B4C4635
:101EC0000893DDF80C90CDF80CB030E4039BD807F4
:101ED0003FF54EAEDDE90A239F1A5D1BAF42A8BF56
:101EE0002F466BE619EE100A1DAA414603F0CEFDFF
:101EF00000287FF49DA91F9C0DF1A80A4FE4062B32
:101F000028BF0623CDE90834794E0493FFF7AFB913
:101F1000102D1E9B774F40F355813A460596474654
:101F200019EE106A4FF0100B904605E00AF1080A0E
:101F3000103D102D40F3428101331034072BCAE9C4
:101F4000008BCDE91E34F1DD1DAA3946304603F081
:101F50009DFD002840F04482DDE91E340DF1A80A01
:101F6000E6E7099B079953F8042B11600993FFF7E3
:101F70004FB819EE100A1DAA414603F087FD00284C
:101F80007FF456A9DDE91E540DF1A80AE7E419EE25
:101F9000100A1DAA414603F079FD00287FF448A9E4
:101FA000DDE91E540DF1A80AE6E41E9B524ACAF868
:101FB0000020013301340122072B1F941E93CAF81D
:101FC000042000F31A810AF1080A002959D1039B61
:101FD0000B9A03F0010313433FF4A6A90E9B10993B
:101FE0001A19CAE900131E9B1F920133072B1E9377
:101FF00000F32D810AF1080A0B99CAF80060013339
:102000008C18072BCDE91E34CAF804107FF78AA973
:10201000D8E419EE100A1DAA4146129303F036FDCA
:1020200000287FF405A91F9C129B0DF1A80AFFF759
:1020300035B901332C44072BCAF80070CAF8045094
:10204000CDE91E347FF76EA9BCE419EE100A1DAA73
:10205000414603F01BFD00287FF4EAA81F9C0DF108
:10206000A80AFFF789BB19EE100A1DAA414603F022
:102070000DFD00287FF4DCA81F9C0DF1A80AFFF7D6
:1020800038B90E9B10981A19CAE900031E9B1F92BB
:102090000133072B1E9300F3DA800AF1080A0029A6
:1020A000AADA4D421031134F80F2788119EE10BA3E
:1020B000102405E00AF1080A103D102D40F36E814E
:1020C00001331032072BCAE90074CDE91E32F1DD6D
:1020D0001DAA4146584603F0D9FC00287FF4A8A861
:1020E000DDE91E320DF1A80AE6E700BF6766666605
:1020F000E8C301084CCF0008F0C30108304609943A
:102100000597CDF80CB0FEF7DBFD20EAE0739DF8F3
:102110005740089004930A97FFF76FB9DDF81490C1
:10212000CAF8007001353444072DCDE91E54CAF8B1
:1021300004607FF738AC85E5059CB0EE4A0AF0EE06
:102140006A0A1BAB019318AB0093224617AB19EE3A
:10215000100A032100F018FB064604193378302BCF
:1021600062D0179B1C4451EC1A0B0022002305F08F
:10217000CDFA002800F08B8023469B1B472F0B9342
:102180003FF417AE662D40F08281179B059A0A93A3
:10219000002B0BF0010B40F35C815BEA020140F085
:1021A00045810A9B04930893129B002B7BD02D231F
:1021B0008DF8573000230593FFF722B94246059E5C
:1021C000B846174601332C44072BCDE91E34CAF814
:1021D0000070CAF8045049DC0AF1080AC3E42D244F
:1021E0008DF85740FFF7FBB801F100430AEE903A33
:1021F0002D230AEE100A1293B2E519EE100A1DAA59
:10220000414603F043FC00287FF412A817991F9C55
:102210000DF1A80AD9E6472D3FF4C0AD3444A2E73A
:102220008DF85700FFF717B851EC1A0B0022002366
:1022300005F06CFA002894D1059BC3F101031793B4
:1022400090E7059B002B08BF0123059378E519EE65
:10225000100A1DAA414603F019FC00287EF4E8AFDD
:10226000DDE91E3217990DF1A80A18E719EE100AD8
:102270001DAA414603F00AFC00287EF4D9AF1F9C3A
:102280000DF1A80A6FE4DDF80CB0FFF703B91B9B52
:10229000A342BFF472AF30215A1C1B9219701B9BD2
:1022A0009C42F9D869E7129B9DF857400593FFF7C8
:1022B000A4B8DDE90A32934243DB1BF0010F40F082
:1022C000AC8023EAE3720492089367256CE719EE69
:1022D000100A1DAA414603F0D9FB00287EF4A8AFDE
:1022E000179D1F9C0DF1A80A50E419EE100A1DAAB3
:1022F000414603F0CBFB00287EF49AAF1F9C0DF102
:10230000A80A29E419EE100A1DAA414603F0BEFBF3
:1023100000287EF48DAF179D0B9B1F9C5D1B0DF15C
:10232000A80A4BE4062305930AE5059B0994CDF81A
:102330000CB09DF857400493089305900A90FFF75E
:102340005CB80E9A0B9B13440A9A0893002A75DD19
:1023500023EAE3730493672526E78DF85700FFF718
:102360001AB900220592FEF777BE8DF85700FFF7E5
:1023700006B88DF85700FFF74FB98DF85700FFF7F3
:10238000CCB88DF85700FFF76AB98DF85700FFF702
:102390005DB84FF0FF330793FEF74FBF01332A4478
:1023A000072BCDE91E32CAF80070CAF804507FF737
:1023B00021AE19EE100A1DAA414603F067FB002862
:1023C0007EF436AFDDE91E320DF1A80A14E6303393
:1023D0008DF8673030238DF866300423119333E590
:1023E000B846FEF725BF1BF001020A927FF433AD19
:1023F00023EAE3730493D7E60D9B264E002BB8BF68
:102400002D242BF080030393A8BF9DF85740224B47
:10241000B8BF8DF85740FEF7E7BF0A9B0E9A1344EA
:10242000089323EAE37304936725BDE60E990B44F2
:102430001A4422EAE27308920493B5E60A9B089ACA
:10244000C3F101031A4422EAE27308920493672558
:10245000AAE65BEA020303D1012304930893A3E6EF
:102460000E9B01331A4422EAE273089204939BE61E
:1024700002231193E8E4099A99F80150894652F829
:10248000041B099241EAE1710591FEF7E3BD179B38
:102490000A9397E4B8C30108BCC3010810B4054C03
:1024A0008446134620685DF8044B0A466146FEF7F1
:1024B0006BBD00BF4000002070B50C468989ADF5AA
:1024C0008D6D21F00201ADF80C10616E1991E1895A
:1024D000ADF80E10E1690791616A09911AA900919E
:1024E00004914FF4806102910591002106916946A3
:1024F0000646FEF749FD051E07DB6946304601F03A
:1025000079F9002818BF4FF0FF35BDF80C305B0695
:1025100003D5A38943F04003A38128460DF58D6DB3
:1025200070BD00BF38B5334B1B6805460C460BB178
:102530009A6B12B3B4F90C3018079AB225D52169F9
:1025400000292DD012F0010007D00020A0606069A2
:102550004042A06139B1002038BD950758BF60697D
:10256000A0600029F7D1120658BF0846F4D543F001
:102570004003A3814FF0FF3038BD184601F064FAE4
:10258000B4F90C3018079AB2D9D4D1062AD552071B
:1025900014D4216943F00803A3819AB20029D1D150
:1025A00002F42070B0F5007FCCD02146284601F01F
:1025B00087FDB4F90C3021699AB2C3E7216B51B1A0
:1025C00004F14002914204D0284601F0ADFAB4F97A
:1025D0000C300022226321690022C4E9001223F09A
:1025E0002403D7E7092243F040032A604FF0FF306D
:1025F000A38138BD4000002070B4184C2568D5F880
:1026000048411CB365681F2D25DC38B9AB1C01356A
:10261000656044F82310002070BC704704EB850C03
:102620000228CCF88820D4F888614FF0010202FA21
:1026300005F246EA0206C4F88861CCF80831E5D113
:10264000D4F88C311343C4F88C31DFE705F5A67458
:10265000C5F84841D6E74FF0FF30DDE738CF000836
:102660002DE9F04F03690C69A34283B0C0F2878063
:10267000013C01F11405A30000F11408009355F882
:10268000243058F82420013381469A4208EB840014
:1026900005EB84070190B2FBF3F63BD30023AE4673
:1026A00040469B465EF804AB02681FFA8AFC06FBB4
:1026B0000C334FEA134C4FEA1A4A06FB0ACA1FFAB8
:1026C00083FCABEB0C0C1FFA8AF31CFA82FCC3EB05
:1026D000124202EB2C421FFA8CFC4CEA0243774573
:1026E00040F8043B4FEA224B4FEA1A43DAD2009BF0
:1026F00058F8033073B9019B043B984504D307E0B5
:10270000984504F1FF3403D253F80429002AF7D086
:10271000C9F81040484602F07FFC00282BDB013648
:102720004046002355F8041BD0F800C08AB29A1A1C
:102730000B0C12FA8CF2C3EB1C4303EB224392B254
:1027400042EA0342AF4240F8042B4FEA2343E9D266
:1027500058F8242008EB84036AB9043B984504D355
:1027600007E0984504F1FF3403D253F80429002A06
:10277000F7D0C9F81040304603B0BDE8F08F002014
:1027800003B0BDE8F08F00BF2DE9F04F2DED068BB3
:1027900095B08DED020B0191016C249D099259ECCD
:1027A000108B0446069341B1426C4A60012393406A
:1027B0008B6002F075F900232364B9F1000AB4BFFD
:1027C000012300232B607C4BBCBF2AF0004ACDF8CC
:1027D0000CA033EA0A0300F0B2809DED027B0022D8
:1027E00051EC170BB0EE479AF0EE679A002304F015
:1027F0008DFF074680B1069A01231360259B002BAD
:1028000000F0DB826D481860431E0093009815B0FD
:10281000BDEC068BBDE8F08F12AA13A92046B0EEDE
:10282000490AF0EE690A02F04FFDB0EE498AF0EE77
:10283000698A5FEA1A56054640F09980DDE912760A
:102840003E4406F23240202840F3AB83C0F1400002
:102850000AFA00FA06F2124028FA00F04AEA0000EA
:10286000FDF73CFF0123013E0D93A1F1F871544B9C
:102870000022FDF7F5FD4AA3D3E9002304F0DEFCB6
:1028800049A3D3E90023FDF7EDFD80463046894694
:10289000FDF734FF46A3D3E9002304F0CFFC024642
:1028A0000B4640464946FDF7DDFD80468946FDF76B
:1028B0008FFF0022834600234046494604F030FF44
:1028C000002840F06D82BBF1160F00F25C823D4B98
:1028D00003EBCB03D3E9002351EC190B04F020FFE9
:1028E000002875D00023BE1B0C93731E0BF1FF3B19
:1028F000049300F14F8200230893BBF1000F6EDABE
:10290000089BCDF814B0A3EB0B030893CBF10003A5
:102910000B93019B092B4FF0000B69D8052B40F35B
:102920003E83043B01930026019B023B032B00F2F4
:102930009986DFE813F04E044B0443042604069AFC
:1029400042F20F73CAF3130A13605AEA08031DD147
:10295000259B002B00F07D861B4B00930833259AA6
:102960000098136015B0BDEC068BBDE8F08F18EE33
:10297000903AC3F3130351EC190B43F07F510D97B9
:10298000A6F2FF36129F41F4401170E7259B002B01
:1029900040F0DB830D4B009338E700BFAFF30080BE
:1029A00061436F63A787D23FB3C8608B288AC63F55
:1029B000FB799F501344D33F0000F07FF1C301081F
:1029C0000000F83F70CF0008F8C30108F4C3010805
:1029D000BE1B731E049300F19A840C900890049B14
:1029E0005B44CDE9043B00230B93019B092B95D954
:1029F000002301264FF0FF3201930A9607920993B4
:102A0000079B0F9300216164204602F023F8009099
:102A1000002800F02F86009B2364079B0E2B00F2FA
:102A2000F980002E00F0F6800599002940F37184AA
:102A3000BD4B01F00F0203EBC2034FEA2118C90599
:102A4000D3E9006740F10384B84B51EC190BD3E98B
:102A5000082304F01DFD41EC180B08F00F084FF09F
:102A6000030AB8F1000F13D0DFF8C09218F0010F7D
:102A700009D030463946D9E9002304F0DFFB0AF1DA
:102A8000010A06460F465FEA680809F10809EDD118
:102A900051EC180B32463B4604F0FAFC41EC1A0BA1
:102AA0000C9B5BB157EC1A6BA14B1AEE100A00227B
:102AB000394604F035FE002840F052855046FDF7B7
:102AC0001DFE53EC1A2B04F0B9FB9A4B0022FDF7C4
:102AD000C9FC079B8046A1F15079002B00F0F383DD
:102AE000059B1093079B0E930A9B002B00F0C0845C
:102AF0000E9A8D4B9049DDF800A003EBC20353E919
:102B00000223002004F0C4FC42464B46FDF7A8FC1B
:102B100059EC1A8B41EC180B49461AEE100AFDF7D6
:102B200057FE0746FDF7EAFD02460B461AEE100A6D
:102B30004946FDF795FC30370AF8017B53EC182B1A
:102B400006460F4604F0ECFD002840F055854FF096
:102B500000080AEE105ACDF844B055465BEC18ABAD
:102B600008EE104A44462AE00E9B01349C424BDAA0
:102B7000724B50465946002204F060FB6F4B002216
:102B800082468B463046394604F058FB89468046DB
:102B9000FDF71EFE0746FDF7B1FD02460B46404617
:102BA0004946FDF75DFC303705F8017B52465B4630
:102BB00006460F4604F0B4FD002840F01885324662
:102BC0003B465B490020FDF74BFC52465B4604F058
:102BD000A7FD0028C8D0109B009A0593AA4618EEBE
:102BE000104A1AEE105A02E0924500F0EA84D146EB
:102BF0001AF8013D392BF7D00133DBB28AF80030E7
:102C0000059B01330593ABE1DDF844B01AEE105A91
:102C100018EE104A139B002BC0F29480059A0E2ADE
:102C200000F39080404B03EBC203D3E90089099B7A
:102C3000002B1BDA079B002B18DC40F05D83404B18
:102C400000224046494604F0F9FA02460B4651EC90
:102C5000190B04F06FFDDDF81CA05646002800F0AB
:102C6000D082099BDDF80080DF43D2E242464B462A
:102C700051EC190B04F00CFCFDF7AAFD0646834647
:102C8000FDF73CFD42464B4604F0D8FA0B4602469F
:102C900051EC190BFDF7E4FBDDF800A033463033AF
:102CA0000AF8013B079B012B00F08E834FF0010BCC
:102CB00008EE105A08EE904A1D465446DA461DE0CA
:102CC00042464B463046394604F0E2FBFDF780FDB4
:102CD0008346FDF713FD42464B4604F0AFFA0AF176
:102CE000010A0B46024639463046FDF7B9FB0BF1A7
:102CF0003003AA4504F8013B00F061830F4B00222A
:102D000004F09CFA0022002306460F4604F0FEFC65
:102D10000028D5D0A24618EE105A18EE904A059B0E
:102D200001330593D1461BE170CF000860D0000845
:102D30000000F03F00001C400000E03F0000244085
:102D4000000014400A9A002A3FD0019A012A40F359
:102D50009C82079B03F1FF380B9B4345C0F26E82B8
:102D6000A3EB0808079B002BC0F26683049A1A4461
:102D70000492089A17461A4408920121204601F04D
:102D800097FF064625E00123BE1B0C93731E049398
:102D90007FF5B1ADC6F10103089300230493ACE5C0
:102DA0005846FDF7ABFC42464B4604F0AFFC00280A
:102DB0007FF489AD0BF1FF3B85E5874B00930098CD
:102DC00015B0BDEC068BBDE8F08FDDF82C80089FB8
:102DD0000A9E002F0CDD049A002A09DD0899BA42E8
:102DE0001346A8BF3B46C91AFF1AD31A0891049389
:102DF0000B9BDBB10A9B002B00F08282B8F1000F25
:102E00000FDD31464246204602F02EF82A460146A2
:102E10000646204601F07AFF29460546204601F085
:102E20003FFE0B9BB3EB080240F0008301212046DC
:102E300001F03EFFBBF1000F824600F3B780019B1B
:102E4000012B40F386814FF000080120BBF1000FF9
:102E500040F0B880049A104410F01F0000F09680F3
:102E6000C0F12003042B40F3F883089BC0F11C0041
:102E700003440244089307440492089B002B05DD99
:102E800029461A46204602F04FF80546049B002BBF
:102E900005DD51461A46204602F046F882460C9B54
:102EA000002B40F03781079B002B40F31E810A9BCB
:102EB000002B40F0A180059B01330593DDF80080D5
:102EC000DDF81C90012707E0294600230A2220464E
:102ED00001F0F0FD0137054651462846FFF7C0FBDB
:102EE0004F4500F1300008F8010BEDDB079A002A8E
:102EF000C8BF9346009AD8BF4FF0010B03469344D6
:102F00000027294601222046019302F00DF8514680
:102F1000054602F081F8002840F3A5811BF8013C2A
:102F2000009A0BF1FF3B04E05A4500F0A7811BF823
:102F3000013D392B0BF10109F6D001338BF800303C
:102F40005146204601F0ACFD56B12FB1B74203D037
:102F50003946204601F0A4FD3146204601F0A0FD8F
:102F60002946204601F09CFD002389F80030DDE968
:102F700005231A60259B002B3FF448AC0098C3F84A
:102F8000009015B0BDEC068BBDE8F08F1C20089BAF
:102F900003440893049B0344074404936DE701260C
:102FA000C2E4C0F1200008FA00F059E401465A4694
:102FB000204601F059FF019B012B824640F3D58149
:102FC0004FF00008DAF810300AEB8303186901F0BB
:102FD0001FFEC0F120003DE7F0C301083146002389
:102FE0000A22204601F066FD0F9B002B064640F3A7
:102FF0002383CDF814900793002F00F31881B8F1C4
:10300000000F40F0FC81B046029B009F079903F03F
:1030100001027B1E1944019B0A92134308910993F4
:1030200051462846FFF71CFB31468346284601F0EF
:10303000F3FF424651468146204602F00FF8C2682F
:1030400001460BF13003002A42D104902846079331
:1030500001F0E2FF04990290204601F021FD029A5E
:10306000079B1AB90999002900F0D682B9F1000F1F
:10307000C0F28781019949EA01090A9951EA0901D7
:1030800000F07F81002A00F3E781089A3B7007F186
:1030900001099742CB4600F0E581294600230A2228
:1030A000204601F007FD4645054631464FF0000336
:1030B0004FF00A02204612D001F0FCFC41460646C1
:1030C00000230A22204601F0F5FC4F468046A7E780
:1030D0002046029301F0E4FC029B0122C6E701F0C6
:1030E000E9FC4F46064680469AE7019B022B77DCB7
:1030F0000A9B002B80D1059B51460133284605933E
:10310000FFF7AEFADDF800B000F130030BF8013B39
:103110000027F6E65146284601F07EFF0028BFF65C
:10312000C2AE294600230A22204601F0C3FC059BBB
:1031300003F1FF390A9B0546002B7FF44FAF0F9B2D
:10314000002B40F370820793B8E6BD4B0093033326
:1031500005E4DDE9021200297FF475AEC2F3130322
:10316000002B7FF470AEB74B1340002B00F03D8274
:10317000089B01330893049B013304934FF001082B
:1031800063E601230A93099B059A13440F930133C5
:10319000012B1F460793B8BF01270021172F616439
:1031A0007FF732AC012204235B0003F11400B84224
:1031B000114602F10102F7D9616425E401230A9363
:1031C000099F002F4ADD0F970797E6E700230A9330
:1031D000D9E700230A93F3E70F9BCDF814900793E8
:1031E000079B002B7FF43DAD51460522204601F0A0
:1031F00061FC01468246284601F00EFF00287FF759
:1032000030AD0098059F3123804600F8013B01371F
:1032100000905146204601F043FC7B1CDDF80090F5
:103220000593CDF80080002E7FF496AE98E63146E7
:103230003A46204601F078FE0646E0E60B9BCDF8C4
:103240002C80A8EB03039B444FF000088AE54FF065
:10325000020AB0EE498AF0EE698A02E4012309937A
:103260000793FFF7CDBB03D1019BDB073FF556AEBC
:10327000D9461BF8013D302BFAD061E6059B009A38
:1032800001330593312313705AE60D9A002A00F09A
:10329000638103F23343049ADDF82C801A440492CC
:1032A000089A17461A44089267E55046FDF726FA31
:1032B00053EC1A2B03F0C2FF634B0022FDF7D2F848
:1032C0008046A1F15079614B002251EC1A0BFDF7B9
:1032D000C7F842464B4606460F4604F03FFA002820
:1032E00040F07F8130463946424609F1004304F000
:1032F00017FA00283FF48EAC4FF0000A5646B0E4AF
:1033000029460B9A204601F0AFFD05468EE50C904C
:1033100040E500F04E81059A4D4B564206F00F02F3
:1033200003EBC203D3E9002351EC190B03F086FF32
:10333000361141EC1A0B00F08881464F00234FF004
:10334000020AF20706D5D7E9002303F077FF0AF156
:10335000010A0123761007F10807F2D1002B3FF490
:103360009FAB41EC1A0BFFF79BBB029B002B7FF43A
:1033700027AEDDE90212C2F31303002B3FF4F3AED4
:103380001EE6002A12DD294601222046019301F0A3
:10339000CBFD5146054601F03FFE0028019B40F35E
:1033A0003581392B00F013810BF13103B94609F84F
:1033B000013B059B0133374605934646C0E5A246CF
:1033C00018EE105A18EE904A02460B46FDF74AF8DE
:1033D00042464B4606460F4604F0C0F960B94246E5
:1033E0004B463046394604F091F900283FF497AC3B
:1033F0005FEACB717FF593AC009AFFF7F8BB716879
:10340000204601F027FB0746002800F03A81336987
:1034100002339A0006F10C010C3001F001FA394632
:103420000122204601F080FD8046EDE52946204638
:1034300001F01AFD0546F9E4DDE907239F1A9CE433
:10344000F4C301080000F07F00001C40000014409D
:1034500070CF000860D00008392B00F0B880B94662
:103460000133A4E7059A013237460592464648E5FE
:103470000E988D4901EBC00142464B4651E90201CD
:1034800003F0DCFE5AEC1A9B41EC180B51461AEE85
:10349000100AFDF79DF90746FDF730F902460B4685
:1034A0001AEE100A5146FCF7DBFF06460E98DDF8CF
:1034B00000803037012808F8017B0F4600F0BA8001
:1034C0000E9B009ACDF838B013449B46C246774B0A
:1034D00000223046394603F0B1FE89468046FDF7AA
:1034E00077F90746FDF70AF9303702460B464046A2
:1034F0004946FCF7B5FF0AF8017BDA4506460F4658
:10350000E5D1DA46DDF838B0694B59EC188B00226A
:1035100018EE100A4946FCF7A5FF32463B4604F078
:10352000FFF800286DD118EE102A4B4660490020A4
:10353000FCF796FF32463B4604F010F900283FF4B2
:1035400069ABD1460AF1FF3A19F8013C302BF8D0AB
:10355000109B0133059303E5129BC3F136039AE6F2
:10356000079B002B3FF4A1AE0F9B002B7FF752ABC4
:10357000059A0E93013A4D4B10921AEE100A3946F5
:10358000002203F05BFE024616460F460AF10100D8
:10359000FDF7B4F832463B4603F050FE454B00229F
:1035A000FCF760FF47EC1A6B8046A1F15079FFF7FA
:1035B0009BBA4FF0020AB0EE49AAF0EE69AAFFF7F3
:1035C0006FBA059B013305933123FFF717BB059BAA
:1035D000BB4601330593392337460BF8013B46467A
:1035E0009EE44FF0000A56460BE698462DE4AA46A4
:1035F00018EE104A1AEE105A109B01330593D1466B
:10360000AEE4109B009A0593FFF7F1BA7FF4CEAEBB
:10361000DA077FF5CBAEC4E6392BD8D0B9F1000F6D
:103620003FF7C2AEC2E6019B022B3FF7D5ADCDF806
:10363000149060E5C24667E7019B022B3FF7CCADD3
:103640000F9BCDF814900793D6E44FF0020AFFF7D2
:1036500027BA194B0093FFF7D9B83FF40EACC0F16D
:103660003C0094E4002666643146204601F0F2F9FD
:10367000009068B9114B124800224FF4D57103F045
:10368000CFF80E4B0E483A4640F2EA2103F0C8F854
:10369000009B236401224FF0FF3309960F930A9297
:1036A0000793FFF7B7BA00BF70CF000800002440AF
:1036B0000000E03F00001C40F8C3010804C40108FA
:1036C00018C40108B1F90C202DE9F0410C4611078E
:1036D000804647D4636842F40062002BA2815EDD1D
:1036E000A56A002D58D00023D8F80060C8F8003033
:1036F00093B212F4805256D10123E1694046A847A3
:10370000431C67D0A389A56A5F0705D56368C01A03
:10371000236B0BB1E36BC01AE169024600234046FC
:10372000A847411C41D1D8F80030002B3DD01D2BBB
:1037300001D0162B56D1A3892269226023F400639D
:1037400000216160A381216BC8F8006021B304F1FE
:103750004003994202D0404600F0E6F90020206381
:10376000BDE8F0812669BEB193B2256826609A074C
:103770000CBF63690023AD1BA3600BE02B463246F0
:10378000E169676A4046B847B0F1000CA5EB0C054B
:10379000664417DD002DF1DC0020BDE8F081E36B0D
:1037A000002B9DDCF8E7206DAEE7B4F90C30226900
:1037B000226023F40063A3810022DB046260C2D58F
:1037C0002065C0E7A38943F040034FF0FF30A38199
:1037D000BDE8F081D8F80030002B93D01D2B06D027
:1037E000162B04D0A38943F04003A381D5E7C8F882
:1037F0000060D1E738B50D46044608B1836B1BB1B4
:10380000B5F90C0030B938BD00F01EF9B5F90C005F
:103810000028F8D029462046BDE83840FFF752BFBF
:1038200038B5B8B10F4B1D6804460DB1AB6B4BB149
:10383000B4F90C0000B938BD21462846BDE838402F
:10384000FFF740BF284600F0FFF8B4F90C0000284D
:10385000F1D0F1E7044B05491868BDE8384000F0A5
:1038600001BC00BF4000002038CF0008F537000839
:1038700000207047014900F0F5BB00BF3169000826
:10388000002070472DE9F84F2D4A4668C263002496
:103890000323C0E9B843074600F53B720423C0F890
:1038A000E8222146C6E902430822C6E90044C6E9E7
:1038B00004447466B46106F15C00FCF7F7FFDFF8BE
:1038C0008CB0BD68DFF888A0DFF88890DFF88880CA
:1038D0001C4BC6F824A0C6E9076BC6F82890C6F8AA
:1038E0002C800822EB60C5E90044C5E904446C66FD
:1038F000AC60AC61214605F15C00FCF7D7FFC5E97F
:10390000075BC5E909A9C5F82C80FD680E4BEB6083
:10391000C5E90044C5E904446C66AC60AC6121466D
:10392000082205F15C00FCF7C1FF0123C5E9075B34
:10393000C5E90A98C5F824A0BB63BDE8F88F00BFAD
:1039400075380008090001001200020085590008BE
:10395000AD590008ED5900080D5A000870B56822ED
:103960004D1E02FB05F50E4605F1740100F058FCF2
:10397000044640B100210C30C4E90016A06005F1F6
:103980006802FCF793FF204670BD00BF274B2DE96E
:10399000F0411E68B36B07465BB306F538764FF00F
:1039A0000408D6E90134013B04D51EE05A1C04F199
:1039B00068041AD0B4F90C50013B002DF6D11C4B11
:1039C0006566C4E90055C4E90253C4E90455A5611C
:1039D0000822294604F15C00FCF768FFC4E90C5595
:1039E000C4E911552046BDE8F08135682DB12E4659
:1039F000D7E73046FFF746FFCFE74FF4D67138469A
:103A000000F00EFC044668B10560C0F804800C307C
:103A10002946A06025464FF4D072FCF747FF34607A
:103A20002E46BEE70C2330603B60DBE738CF000852
:103A30000100FFFF024B0349186800F013BB00BFF1
:103A400038CF000831690008836B03B1704719E76C
:103A5000704700BF704700BF704700BF704700BF8E
:103A6000024B0349186800F0DDBA00BF4000002097
:103A700071380008024B0349186800F0D3BA00BF40
:103A80004000002081380008F8B5244F0C46064657
:103A900000F0DCFFBA685568C4F57E630F3325F08B
:103AA00003052B4423F47F6323F00F03A3F5805415
:103AB000B4F5805F07DB0021304604F08FFBBB6864
:103AC0002B44984204D0304600F0C2FF0020F8BDDD
:103AD0006142304604F082FB01300DD0104ABB68D1
:103AE0002D1B45F001055D60136830461B1B1360FC
:103AF00000F0AEFF0120F8BD0021304604F06EFB5F
:103B0000BA68831A0F2BDEDD43F001035360054BC7
:103B100003491B68C01A0860D5E700BF7004002085
:103B20007C0C002078080020002961D0F8B50C46F4
:103B3000064600F08BFF54F8042C7B4FA4F10805D7
:103B400022F0010105EB010CB868DCF80430604597
:103B500023F0030300F08B80D207CCF8043032D47A
:103B600054F8082CAD1A1144AA6807F108008242E3
:103B70006AD00CEB0304D4F804E0EC68D4601EF0C7
:103B8000010FA26000F0978041F001036B60CCF858
:103B90000010B1F5007F35D27A68CB0848090121C1
:103BA000013381401143796007EBC30257F83310AA
:103BB000083AC5E9021247F83350CD603046BDE8F7
:103BC000F84000F045BF0CEB03025268D00710D458
:103BD000194407F10800DCF80830834273D0DCF8A0
:103BE0000C20DA60936041F001036B606950D0E70C
:103BF000704741F00103B1F5007F44F8043CCCF874
:103C00000010C9D3B1F5206F4FEA512348D28B0978
:103C100003F1390003F13802C300F818FB580838E3
:103C2000984259D05A6822F003028A4202D99B680E
:103C30009842F7D1D868C5E902308560DD6030462A
:103C4000BDE8F84000F004BF0CEB03025268D20755
:103C500063D40B44DCE90212CA60916043F00102B4
:103C60006A603046EB50BDE8F84000F0F1BE0B440E
:103C7000D10707D454F8082CAD1A1344D5E9021221
:103C8000CA60916043F001026A60284ABD60126810
:103C90009A4293D8264B30461968FFF7F5FE8DE718
:103CA000142B0AD9542B1FD80B0B03F16F0003F10F
:103CB0006E02C300B1E719448DE703F15C0003F124
:103CC0005B02C300A9E741F00103C7E90455C5E958
:103CD00002006B60695071E779689210012404FA60
:103CE00002F20A437A60A6E7B3F5AA7F06D8CB0BA7
:103CF00003F1780003F17702C3008EE740F25452DB
:103D0000934206D88B0C03F17D0003F17C02C300C3
:103D100083E74FF47E737E227FE741F001036B60FF
:103D2000CCF800104AE700BF700400207C08002097
:103D3000780C00209368002B00F085802DE9F04F6F
:103D4000B1F90C300C461907804683B0174698B27B
:103D500025D523691BB310F002033D682DD04FF029
:103D6000000ADFF8BCB25646B9465E4533465246B5
:103D700028BF5B464046002E52D0E169676AB847CB
:103D8000002856DDD9F808301B1A8244361AC9F8C3
:103D90000830002BE9D1002003B0BDE8F08F2146A8
:103DA0004046FEF7BFFB002840F03681B4F90C30E6
:103DB0003D6898B210F00203D1D110F0010944D14E
:103DC0004E46009746B38205D4F808B040F1838090
:103DD000B3455A4600F2B28010F4906F40F0BF80B5
:103DE00020680192494600F0B5FDA368019AA3EB53
:103DF0000B012368A1601344B24623600026009B98
:103E00009868A0EB0A00D14498600028C3D0B4F9A8
:103E10000C0080B2002ED6D1D5E900960835D1E746
:103E2000D5E900A60835A0E721464046FFF7E2FCA9
:103E300080B3B4F90C3043F040034FF0FF30A3815E
:103E400003B0BDE8F08F002070471E46AA46994691
:103E500018461D46009756B388B34A46D4E9041362
:103E60002068B24228BF3246884205D9A16803EBD8
:103E7000010B5A4500F3A680934263DCE169676A4F
:103E80002A464046B847B0F1000BD2DDB9EB0B092A
:103E9000CAD00120009A9368A3EB0B035D44A6EB04
:103EA0000B069360002B3FF476AF002ED4D10AF1BD
:103EB000080353E902569A460833002EF9D03246D9
:103EC0000A21284600F05CFC002800F09C800130AC
:103ED000A0EB0509C1E720682369984216D86369F9
:103EE000B34213D86FF00042B24228BF3246E169B4
:103EF00092FBF3F2676A02FB03F340464A46B84777
:103F0000B0F1000A95DDA6EB0A0678E7B345DA467C
:103F100028BFB2465246494600F01CFDA3682268FD
:103F2000A3EB0A035244A3602260002BEBD121468D
:103F30004046FFF75FFC0028E5D07AE72068B346EB
:103F400032464EE72946019200F004FD019AA3682B
:103F50009B1AA360236813442360934696E7236863
:103F60002169A3EB010B636903EB430A0AEBDA7ADD
:103F70000BF101034FEA6A0A33445345524684BFAA
:103F80009A46524643052CD51146404600F048F962
:103F900000283BD05A462169019000F041FCA289DB
:103FA000019B22F4906242F08002A28103EB0B009D
:103FB0002361AAEB0B03C4F814A0A3602060B346EE
:103FC00032460EE729465A4600F0C4FC23685B449B
:103FD000236021464046FFF70DFC00283FF456AF12
:103FE00027E7404601F0E2FA03460028DED12169C6
:103FF0004046FFF799FDB4F90C300C2223F0800302
:10400000C8F8002017E7721C914627E70C22B4F984
:104010000C30C8F800200EE74FF0FF30BCE600BFC0
:1040200000FCFF7F2DE9F041884600F53877002637
:10403000D7E90154013D0FD4A389012B05F1FF35C8
:1040400006D9B4F90E300133204601D0C0470643EB
:104050006B1C04F16804EFD13F68002FE8D13046B3
:10406000BDE8F0812DE9F8430746884600F538762B
:104070004FF00009D6E90154013D11D4A389012B69
:1040800005F1FF3508D9B4F90E300133214603D0CC
:104090003846C04749EA00096B1C04F16804EDD1B9
:1040A0003668002EE6D14846BDE8F883F030704708
:1040B00000487047700900200048704770090020D0
:1040C0002DE9F0418B890C46990796B008D504F18B
:1040D00043030122C4E90432236016B0BDE8F08135
:1040E000B4F90E100029064627DB6A4604F091F861
:1040F000002821DB019D05F47045A5F50055B5FAB2
:1041000085F54FF480686D094FF4006741463046ED
:1041100000F086F8B4F90C30F0B1204AF26343F0B5
:104120008003C4F81480A3812060206135BB3B4329
:10413000A38116B0BDE8F081A38913F0800519D0E2
:104140004FF040084146304600F06AF80025B4F9C7
:104150000C302F460028E0D19A05BED423F003038B
:1041600004F1430243F002030121C4E90421A381C5
:104170002260B2E74FF480682F46C7E7B4F90E100B
:10418000304604F04BF810B9B4F90C30CFE7A389EE
:1041900023F0030343F001031BB2C8E7753800089E
:1041A00070B50C46B1F90E10002996B015461E46A2
:1041B00014DB6A4604F02DF800280FDB019A02F4A4
:1041C0007042A2F50052B2FA82F24FF480635209B3
:1041D0004FF4006032602B6016B070BDB4F90C1063
:1041E000002311F08000336004D0402218462A607A
:1041F00016B070BD4FF480632B6016B070BD00BF69
:10420000024B0146186800F00BB800BF40000020C8
:10421000024B01461868FFF787BC00BF4000002032
:104220002DE9F04F01F10B06162E83B0044624D879
:10423000102900F2BA8000F009FC10261822022092
:10424000B74F3A44A2F1080153688B4200F0BA809C
:104250005A68D96822F003021A449D68E9608D60AB
:10426000516841F001012046516003F1080500F05A
:10427000EFFB284603B0BDE8F08F36F0070600F1EB
:104280009480B14200F2918000F0E0FBB6F5FC7F33
:10429000C0F09681730A00F08F80042B00F26B81CE
:1042A000B30903F1390003F1380CC3009C4F3B44C0
:1042B000A3F108055B689D4206D10CE0002980F25D
:1042C0002B81DB689D4206D05A6822F00302911BC5
:1042D0000F29F3DD60463D69DFF848C265457CD0B3
:1042E0006A6822F00302931B0F2B00F37781002BE7
:1042F000C7E904CC80F26881B2F5007F80F01681B6
:10430000D308796801334FEA521E012202FA0EF2F5
:104310000A4357F833E0C5F808E007EBC301083952
:10432000E9607A6047F83350CEF80C5083100121D1
:104330009940914257D8114206D120F0030049001C
:10434000114200F10400FAD007EBC0094D46864641
:10435000D5F80C80454508D119E1002B80F2208169
:10436000D8F80C80454500F01281D8F8042022F0DE
:104370000302931B0F2BF0DD2046D8E9025408EB13
:10438000060146F00106C8F80460EC60A56043F041
:104390000104C7E90411C1E902CC4C6048F80230BD
:1043A00000F056FB08F1080502E00C23236000250D
:1043B000284603B0BDE8F08F4FF4007340204FF063
:1043C0003F0C73E7D3689A4208BF02307FF440AFD6
:1043D0003D69DFF850C1654582D17A6883100121BB
:1043E00099409142A7D9BD686B6823F00308464500
:1043F00003D8A8EB06030F2B7EDCDFF82C91D7F84F
:104400000824D9F800300132334405EB080A00F0E3
:104410002F8103F580530F3323F47F6B2BF00F0BA9
:104420005946204603F0DAFE411C024600F0EF80B8
:10443000824500F2EA80D9F804105944C9F8041002
:104440000B4600F04B81D7F8081401311BBFA2EBDB
:104450000A0A5344C7F80824C9F8043012F00703C5
:1044600000F01281C3F108010A44C3F5805193445E
:104470000831A1EB0B01C1F30B0A51462046019212
:10448000009303F0ABFE421CDDE9003200F04B81EB
:10449000831A03EB0A0BD9F80400BA604BF001034E
:1044A0000AEB0001BD425360C9F8041000F02281FC
:1044B000B8F10F0F40F220816B68A8F10C0020F0DA
:1044C000070003F0010303436B604FF0050C2B184A
:1044D0000F28C3E901CC00F22D8153681546D9F8A5
:1044E0002C208A42D9F8302038BFC9F82C108A42D3
:1044F00038BFC9F830108CE0AA1943F0010346F028
:1045000001066E602046BA60536000F0A1FA0835DB
:10451000284603B0BDE8F08FD9681A449DE600BF75
:104520007004002078040020780C0020B2F5206F81
:104530004FEA522363D3142B00F2B88003F15C01DD
:10454000C9005B3307EB010E7958AEF1080E8E45BA
:1045500000F091804B6823F00303934202D98968ED
:104560008E45F7D1D1F80CE07A68C5E9021ECEF885
:104570000850CD60DAE6142B59D9542B00F29E80F6
:10458000330B03F16F0003F16E0CC3008EE60EF1E6
:10459000010E1EF0030F05F108057FF4D9AE51E0BE
:1045A000424445465368D8F80C1043F00103536069
:1045B00055F8083F2046D9608B6000F049FAF7E6CD
:1045C000F00806F108023BE62A442046536843F00F
:1045D00001035360083500F03BFAE9E6A9192046CB
:1045E00046F0010643F001046E60C7E90411C1E919
:1045F00002CC4C60AB5000F02BFA0835D8E693099A
:1046000003F13901C90038339CE7BD4260D0BD6871
:104610006B6823F0030B5E45ABEB060302D80F2B50
:104620003FF76AAF204600F013FA0025C0E603F119
:104630005C0003F15B0CC30038E659F808394B45C0
:1046400040F0968010F0030F00F1FF30F5D17B6849
:1046500023EA01037B60490099423FF6C4AE19B9D1
:10466000C1E649000EF1040E1942FAD070466BE61D
:1046700003F1100BD4E69A104FF001087B6808FA9A
:1046800002F21A437A6070E702EB0B014942C1F370
:104690000B0A514620460193009203F09FFD431CF4
:1046A000DDE900237FF4F4AE9A46F4E6542B26D8D5
:1046B000130B03F16F01C9006E3343E7B3F5AA7F13
:1046C00026D8F30B03F1780003F1770CC300EDE576
:1046D000D9F804305B44C9F80430B4E6CAF30B00DF
:1046E00000287FF4B0AEBD6808EB0B0343F0010374
:1046F0006B60F4E61546F2E60123536092E7B3F5EA
:10470000AA7F21D8D30B03F17801C900773319E7C9
:1047100040F25452934221D8B30C03F17D0003F1CF
:104720007C0CC300C2E5083B9B44ABEB020B4FF093
:10473000000AB0E605F108012046FFF7F5F9BD686B
:10474000D9F804106B68CAE640F254518B420BD87A
:10475000930C03F17D01C9007C33F3E64FF47E73C3
:104760007F204FF07E0CA1E54FF47E717E23E9E6B9
:104770007B6870E7000000000000000000000000FF
:1047800001F0FF01102A2BDB10F0070F08D010F802
:10479000013B013A8B422DD010F0070F42B3F6D106
:1047A000F0B441EA012141EA014122F007047FF01F
:1047B00000070023F0E80256083C85EA010586EA76
:1047C000010685FA47F5A3FA87F586FA47F6A5FAB2
:1047D00087F68EB9EED1F0BC01F0FF0102F00702BE
:1047E00032B110F8013B013A83EA010313B1F8D169
:1047F0000020704701387047002D06BF354603384A
:10480000073815F0010F07D1013015F4807F02BF82
:10481000013015F4C03F0130F0BC0138704700BFD3
:10482000844641EA000313F003036DD1403A41D3BB
:1048300051F8043B40F8043B51F8043B40F8043B7A
:1048400051F8043B40F8043B51F8043B40F8043B6A
:1048500051F8043B40F8043B51F8043B40F8043B5A
:1048600051F8043B40F8043B51F8043B40F8043B4A
:1048700051F8043B40F8043B51F8043B40F8043B3A
:1048800051F8043B40F8043B51F8043B40F8043B2A
:1048900051F8043B40F8043B51F8043B40F8043B1A
:1048A00051F8043B40F8043B51F8043B40F8043B0A
:1048B000403ABDD2303211D351F8043B40F8043BAA
:1048C00051F8043B40F8043B51F8043B40F8043BEA
:1048D00051F8043B40F8043B103AEDD20C3205D3BA
:1048E00051F8043B40F8043B043AF9D2043208D0B2
:1048F000D2071CBF11F8013B00F8013B01D30B8824
:1049000003806046704700BF082A13D38B078DD001
:1049100010F003038AD0C3F10403D21ADB071CBFD3
:1049200011F8013B00F8013B80D331F8023B20F83D
:10493000023B7BE7043AD9D3013A11F8013B00F876
:10494000013BF9D20B7803704B7843708B788370FE
:104950006046704788420DD98B1883420AD900EB14
:10496000020CBAB1624613F801CD02F801CD9942AA
:10497000F9D170470F2A0ED8034602F1FF3C4AB125
:104980000CF1010C013B8C4411F8012B03F8012FB1
:104990006145F9D1704740EA01039B0750D1A2F16C
:1049A000100370B501F1200C23F00F0501F1100E7A
:1049B00000F11004AC441B095EF8105C44F8105C74
:1049C0005EF80C5C44F80C5C5EF8085C44F8085C2B
:1049D0005EF8045C44F8045C0EF1100EE64504F148
:1049E0001004E9D1013312F00C0F01EB031102F0B6
:1049F0000F0400EB031327D0043C24F003064FEA16
:104A0000940C1E441C1F8E465EF8045B44F8045F41
:104A1000B442F9D10CF1010402F0030203EB840368
:104A200001EB840102F1FF3C4AB10CF1010C013BA6
:104A30008C4411F8012B03F8012F6145F9D170BDA9
:104A400002F1FF3C03469BE72246EBE7704700BFBD
:104A5000704700BFC36C70B505460C464BB153F8A8
:104A6000240080B1026843F824200023C0E9033306
:104A700070BD2122042101F0F9FE0346E8640028FC
:104A8000EDD1002070BD012101FA04F6721D9200E3
:104A9000284601F0EBFE0028F3D0C0E90146E4E728
:104AA00031B1C36C4A6853F82200086043F8221001
:104AB000704700BFF0B50C69064683B00D4601F1A2
:104AC000140E0020DEF800101FFA81FC02FB0C33EC
:104AD0004FEA134C090C02FB01CC01309BB203EBF3
:104AE0000C4384424EF8043B4FEA1C43EADC3BB1E2
:104AF000AA68A24207DD05EB8402013453612C61F0
:104B0000284603B0F0BD6968019301313046FFF7D4
:104B1000A1FF019B0746B8B12A690193023205F152
:104B20000C0192000C30FFF77BFEF26C6968019B70
:104B300052F82100286042F821503D4605EB8402DE
:104B4000013453612C61DBE7024B03483A46B5213F
:104B500001F066FE04C401084CC401082DE9F843C5
:104B60000C4628491F46164603F1080281FB023114
:104B7000092F4FEAE2730546C3EB610339DD4FF0BD
:104B8000010C00214FEA4C0C634501F10101F9DCF5
:104B90002846FFF75FFF014668B3089B4361092E73
:104BA0004FF00103036112DC0A340926B7420BDD22
:104BB000BE1B264414F8013B0A22303B2846FFF76F
:104BC00079FFA6420146F5D10846BDE8F88304F115
:104BD0000909C846344418F8013B0A22303B2846EC
:104BE000FFF768FFA0450146F5D1A6F108044C4443
:104BF000DCE70021CCE70A46034B0448CE2101F054
:104C00000FFE00BF398EE33804C401084CC401080C
:104C1000030C1B04D3B90004102310F07F4F04BF12
:104C20000002083310F0704F04BF0001043310F08D
:104C3000404F04BF80000233002805DB10F0804F96
:104C400003F1010308BF2023184670470023E4E75F
:104C5000036813F00702014607D0DA071FD498074C
:104C600021D55B080B600120704798B2A0B11046B7
:104C7000DAB20AB908301B0A1A0704BF1B0904304C
:104C80009A0704BF9B080230DA0703D45B0800F1DF
:104C9000010006D00B6070471B0C1020E8E70020D5
:104CA0007047202070479B080B600220704700BFB0
:104CB00038B5C36C04460D464BB15868B0B10268B4
:104CC0005A6000220123C0E90435C26038BD2122A8
:104CD000042101F0CBFD0346E0640028EDD1094B2F
:104CE000094800224FF4A07101F09AFD1C22012115
:104CF000204601F0BBFD0028F1D001220223C0E9CB
:104D00000123DEE704C401084CC401082DE9F04F7B
:104D10000E691569AE4285B08846144605DB2A4601
:104D2000234635460C4616469846A3686168AF1977
:104D3000BB42B8BF0131FFF78DFE0190002800F0A3
:104D40008780019B03F1140909EB870AD14505D23D
:104D50004B46002243F8042B9A45FBD808F114086F
:104D600008EB860B04F11403D8451A4603EB8505BE
:104D70005FD22B1B153B23F0030304331534A542EC
:104D800038BF0423CDE902A7AC461F46924605E092
:104D9000000C29D1C34509F1040948D958F8040B7E
:104DA00085B2002DF4D056464C46002356F8040B2D
:104DB000216882B21FFA81FE05FB02EE000C0A0C8C
:104DC000734405FB002202EB13429BB243EA024309
:104DD000B44544F8043B4FEA1243E7D849F807309A
:104DE00058F8040C000CD5D0D9F8003054461946B8
:104DF0004D4600222688090C00FB06110A449BB28E
:104E000043EA024345F8043B54F8046B2968360C26
:104E10008BB200FB063303EB1243A4454FEA134267
:104E2000E8D8C34549F8073009F10409B6D8DDE9E7
:104E300002A7002F02DC05E0013F03D05AF8043D31
:104E4000002BF9D0019B18461F6105B0BDE8F08F1B
:104E5000034B0448019A40F25D1101F0E1FC00BFF0
:104E600004C401084CC4010812F003032DE9F04109
:104E70001446064632D10D46A41020D0D6F84880FC
:104E8000B8F1000F33D0E3074FF0000707D46410E8
:104E900015D0D8F80000A8B18046E307F7D5424600
:104EA00029463046FFF732FFB5B16968F36C6410EC
:104EB00053F821202A6043F821500546E9D12846BD
:104EC000BDE8F081424641463046FFF71FFFC8F873
:104ED000000007608046E0E70546D8E7013B0F4A3F
:104EE00052F823200023FFF7E5FD0546C4E7012122
:104EF0003046FFF7AFFD804640B1012340F27122FA
:104F0000C0E904320023B0640360BCE7044B0548E9
:104F100042464FF4A07101F083FC00BF60CF00084F
:104F200004C401084CC401082DE9F0470C46904622
:104F30002669A368496806EB6216751C9D42074600
:104F40004FEA621904DD5B009D4201F10101FADCC8
:104F50003846FFF77FFD8446002851D0B9F1000F95
:104F600000F114000EDD09F105024FEA820E03463E
:104F70000CEB8202002143F8041B9342FBD1AEF1FB
:104F800014031844216904F1140318F01F0803EBFB
:104F900081012DD0C8F1200986464FF0000A1A6819
:104FA00002FA08F242EA0A024EF8042B53F8042BE4
:104FB000994222FA09FAF2D80B1B153B23F003039E
:104FC000043304F11502914238BF0423BAF1000FF3
:104FD00018BF2E4640F803A0FB6C6268CCF8106046
:104FE00053F822102160604643F82240BDE8F08764
:104FF000043853F8042B40F8042F9942F9D8EBE712
:10500000034B0448624640F2D91101F009FC00BF8D
:1050100004C401084CC401080B6984460069C01A25
:1050200016D10CF1140C14310CEB830210B401EB0B
:10503000830301E0944508D252F8044D53F8041D4F
:105040008C42F7D005D24FF0FF305DF8044B70472B
:10505000704701205DF8044B704700BF2DE9F84F01
:105060000F691369FF1A002F0E4690467AD101F19D
:105070001405143202EB830205EB830301E09D4229
:1050800073D253F8041D52F8044DA142F7D064D3F3
:105090007168FFF7DFFC8146002872D03569D8F8C7
:1050A0001020C76008F1140E06F1140009F1140A6B
:1050B00006F1100C0EEB820200EB8507564600212C
:1050C0005EF8044B5CF804BFA3B211FA8BF1CB1A63
:1050D000210CC1EB1B4101EB23419BB243EA01438D
:1050E000724546F8043B4FEA2141E9D8A2EB080497
:1050F000153C08F11508424524F0030606F10406A4
:1051000038BF0426304424F0030238BF002287420F
:105110005244B24416D95646044654F8043B11FA98
:1051200083F10A1402EB134289B241EA0243A74217
:1051300046F8043B4FEA2241EFD87A1E101A20F0BD
:105140000302524423B952F8043D013D002BFAD02A
:10515000C9F810504846BDE8F88F33460127464647
:10516000984695E7F9DB002792E70021FFF772FCEC
:10517000814668B101220023C9E904234846BDE8FD
:10518000F88F074B07484A464FF4107101F048FB6F
:10519000034B04484A4640F2322101F041FB00BF74
:1051A00004C401084CC4010882B08DED000B154BFE
:1051B000019A1340A3F15073002B05DD002019461E
:1051C00041EC100B02B070475B42B3F1A07F4FEA95
:1051D000235208DA4FF40023002043FA02F141EC95
:1051E000100B02B07047143A1E2ADABF4FF000438A
:1051F00023FA02F201220021104641EC100B02B00A
:10520000704700BF0000F07FF8B5046900F1140694
:1052100006EB8404271F54F8045C2846FFF7F8FCCB
:10522000C0F120030A280B6031DDBE421BD20B38CF
:1052300054F8081C23D0C0F1200C854021FA0CF74B
:105240002F43A4F1080547F07F53AE4243F44013C7
:1052500036D2814054F80C0C20FA0CF00843024678
:1052600043EC102BF8BD0B3808D005FA00F040F0E5
:105270007F53002043F440130246F1E7014645F016
:105280007F5343F440130A4643EC102BF8BDC0F1A2
:105290000B0C25FA0CF1BE4241F07F5338BF54F895
:1052A000081C00F1150034BF21FA0CF1002105FAA9
:1052B00000F043F4401340EA010243EC102BF8BD28
:1052C00001FA00F00246CBE72DE9F043884683B0AF
:1052D000012157EC106B1546FFF7BCFB0446002874
:1052E0004FD0C7F30A59C7F31303B9F1000F01D028
:1052F00043F48013002E019324D068460096FFF7F4
:10530000A7FC002839D0DDE90013C0F1200203FA20
:1053100002F20A43C34062610193002B14BF0222D0
:105320000122A3612261B9F1000F16D0A9F2334323
:105330000344C0F13500C8F800302860204603B0AF
:10534000BDE8F08301A8FFF783FC019B63610122A4
:1053500020302261B9F1000FE8D104EB8203A0F202
:105360003240C8F800001869FFF752FCC0EB421049
:105370002860204603B0BDE8F083009B6361019B79
:10538000CBE7034B0348224640F20A3101F048FACA
:1053900004C401084CC401082DE9F04383B00E4653
:1053A00069460746FFF730FF01A9304655EC104B20
:1053B000FFF72AFF3B693169591ADDE90023D31A47
:1053C00003EB4113002B51EC100B0DDD05EB0359E2
:1053D0004D4602460B462046294602F059F841EC5C
:1053E000100B03B0BDE8F083C3EB033301EB0357AD
:1053F0003946EEE7172870B506460CDD0A490B4D15
:105400000020002422462B4601F018FF013EF9D16E
:1054100041EC100B70BD064B03EBC006D6E904014E
:1054200041EC100B70BD00BF0000F03F00002440B5
:1054300060CF00080139491101F1010C116902F135
:10544000140303EB81018B4200EB8C0C16D210B5D8
:10545000A0F1040E53F8044B4EF8044F9942F9D8CA
:105460008B1A153B23F0030304331844844504D9F5
:10547000002340F8043B8445FBD810BD844505D982
:10548000002340F8043B8445FBD87047704700BFB9
:1054900003694A11934200F1140009DA00EB830317
:1054A00002E053F8042DCAB98342FAD800207047AD
:1054B00011DD11F01F010ED010B450F8224000EBA6
:1054C000820324FA01F202FA01F18C420CD001208D
:1054D0005DF8044B704700EB8203E5E7012070475D
:1054E00053F8042D002AF2D18342F9D800205DF848
:1054F000044B704770B50D461646044608B1836BE1
:105500007BB1B368013B002BB36011DAB069834211
:1055100014DBE8B20A2811D033685C1C34601D70BB
:1055200070BDFEF791FAB368013B002BB360EDDB71
:1055300033685C1C34601D70E8B270BD3246294689
:105540002046BDE8704001F007B900BF164B70B5AA
:105550001E6805460C460EB1B36B7BB1A368013BD8
:10556000002BA36012DAA269934215DBE8B20A2885
:1055700012D023685A1C22601D7070BD3046FEF7A1
:1055800063FAA368013B002BA360ECDB23685A1C81
:1055900022601D70E8B270BD224629463046BDE843
:1055A000704001F0D9B800BF400000202DE9F84F4D
:1055B0001746002900F0988007F10B0580460C463D
:1055C000FFF744FA162D5DD810252A46AF425ED863
:1055D00054F8041C21F003069642A4F1080962DA8B
:1055E000BC4BD3F808C009EB0600844500F0978057
:1055F000D0F804C02CF0010303445B68DB0768D4D7
:105600002CF0030C06EB0C03934247DACB0710D4C3
:1056100054F8083CA9EB030ADAF8043023F003013C
:105620008C44B444944580F211817318934280F203
:10563000E88039464046FEF7F3FD0746E0B154F8EE
:10564000043C23F001034B44A0F10802934200F014
:10565000D280321F242A00F2F580132A00F2AC8097
:1056600003462246116819605168596092689A6031
:1056700021464046FEF758FA4046FFF7E9F938461A
:10568000BDE8F88F25F00705002D2A469EDA0C2389
:10569000C8F8003000273846BDE8F88F1E46D0E92C
:1056A0000223D3609A60731B0F2B22D8D9F80430E1
:1056B00003F0010333434E44C9F80430736843F0E8
:1056C0000103736040462746FFF7C2F93846BDE83C
:1056D000F88FC907ADD454F8083CA9EB030ADAF8EF
:1056E000041021F00301A0E7BDE8F84F1146FEF7D2
:1056F00097BDD9F8041001F001012943C9F804103D
:1057000009EB05014E4443F001034B60736843F01D
:105710000103083173604046FEF706FAD2E7DCF871
:10572000040020F0030B06EB0B0C05F11000844580
:105730004DDAC9073FF57DAF54F8081CA9EB010A03
:10574000DAF8041021F003018B44B34458453FF7C5
:105750006CAF5746DAF80C1057F8080F321F242A9E
:10576000C160886000F2DB80132A40F2D680216895
:10577000CAF808106168CAF80C101B2A00F2DF8012
:1057800008340AF110022168116061685160A16853
:1057900091600AEB0501ABEB050242F00102996052
:1057A0004A60DAF8043003F001031D434046CAF8AA
:1057B0000450FFF74DF96EE72368036063684360A8
:1057C0001B2A68D804F1080200F108034AE709EB34
:1057D00005029A60ACEB050343F00103536054F8F3
:1057E000043C03F001031D43404644F8045CFFF70A
:1057F0002FF927464FE750F8043C23F003031E44DB
:1058000051E75746DAF80C1057F8080F321F242AD0
:10581000C16088604CD8132A48D92168CAF808109A
:105820006168CAF80C101B2A56D808340AF1100215
:105830001E462368136063685360A3689360D14673
:105840003C4630E72146FFF785F811E7D0E902131F
:105850005746CB60996057F8081FDAF80C30CB60D8
:10586000321F242A99602DD8132A29D92368CAF80F
:1058700008306368CAF80C301B2A42D808340AF191
:10588000100322681A6062685A60A2689A606646CD
:10589000D1463C4607E7A3688360E368C360242AD7
:1058A00026D004F1100200F11003DBE63A46BFE710
:1058B000214638461E46D146FFF74CF83C46F2E6F4
:1058C0003B46DEE7214638466646D146FFF742F8BA
:1058D0003C46E8E670040020A168CAF81010E168B0
:1058E000CAF81410242A20D010340AF118029FE7B5
:1058F000236903616169416104F1180200F1180331
:10590000B0E6A368CAF81030E368CAF81430242A55
:1059100021D010340AF11803B3E73A4633E72146A1
:105920003846FFF717F8164B33E72269CAF81820F4
:105930006269CAF81C2018340AF1200278E7A168CD
:10594000CAF81010E168CAF81410242A0DD01034D7
:105950000AF1180217E72369CAF818306369CAF810
:105960001C3018340AF120038BE72269CAF818208A
:105970006269CAF81C2018340AF1200203E700BF4C
:105980007004002010B50C46B1F90E1002F012FDA3
:10599000002803DB236D0344236510BDA38923F492
:1059A0008053A38110BD00BF002070472DE9F04156
:1059B0000C46B1F90C101F46CB05054616460BD414
:1059C00021F48051A1813B46B4F90E10324628469D
:1059D000BDE8F04102F078BDB4F90E1002230022B8
:1059E00002F01EFCB4F90C10EAE700BF10B50C463B
:1059F000B1F90E1002F014FCA389421C0EBF23F46F
:105A0000805343F480532065A38110BDB1F90E107B
:105A100002F0FCBB2DE9F84F4B6E9C0490462DD54F
:105A20009368126843B38B46064602F1080959E9A8
:105A3000025A5FEA9A0715D0043D002401E0A7420C
:105A40000ED055F8041F5A46304601F01FF8431C8B
:105A500004F10104F3D10023C8E90133BDE8F88F54
:105A6000D8F808302AF0030AA3EB0A03C8F8083074
:105A700009F10809002BDAD10020ECE7FEF75AF90A
:105A80000023C8E90133BDE8F88F00BF10B4946863
:105A900014B15DF8044BBDE7204654605DF8044B3B
:105AA000704700BF2DE9F04FABB01C468846174643
:105AB0000693834618B1836B002B00F02582B8F95A
:105AC0000C1088048AB20AD4D8F8643041F4005229
:105AD00023F40053A8F80C20C8F8643092B21307DE
:105AE00040F1A480D8F81030002B00F09F8002F025
:105AF0001A020A2A00F0A8801AAB0D930023CDE900
:105B00000E3309930DF1680905933B78002B00F0E3
