:020000040800F2
:100000000080002035E8000885E8000885E8000841
:1000100085E8000885E8000885E800080000000081
:1000200000000000000000000000000085E800085B
:1000300085E800080000000085E80008F19B000842
:1000400085E8000885E8000885E8000885E80008DC
:1000500085E8000885E8000885E8000885E80008CC
:1000600085E8000885E8000885E8000885E80008BC
:1000700085E8000885E8000885E8000885E80008AC
:1000800085E8000885E8000885E8000885E800089C
:1000900081A4000885E8000885E8000885E80008D4
:1000A00085E8000885E8000885E8000885E800087C
:1000B00085E8000885E8000885E8000885E800086C
:1000C00085E8000885E8000885E8000885E800085C
:1000D00085E8000885E8000885E8000885E800084C
:1000E00085E8000885E8000885E8000885E800083C
:1000F00085E8000885E8000885E8000885E800082C
:1001000000000000000000000000000085E800087A
:1001100085E8000885E8000885E8000885E800080B
:1001200085E8000885E8000885E8000885E80008FB
:1001300085E8000885E800080000000000000000D5
:1001400085E8000885E8000885E800080000000050
:10015000000000000000000000000000000000009F
:10016000000000000000000085E8000885E80008A5
:1001700085E800080000000000000000000000000A
:080180000000000085E8000802
:1001C0000348044B834202D0034B03B118477047E6
:1001D000240C0020240C00200000000005480649E3
:1001E0000B1AD90F01EBA301491002D0034B03B145
:1001F00018477047240C0020240C00200000000049
:1002000010B5064C237843B9FFF7DAFF044B13B15E
:100210000448AFF300800123237010BD240C00209C
:10022000000000009CE8000808B5044B1BB104491D
:100230000448AFF30080BDE80840CFE700000000AD
:10024000280C00209CE8000800B500BE70475DF84F
:1002500004EB00BFE0B505460E464FF007073846F1
:100260000DF092FC013FFADA304600F059F84FF0F9
:10027000070738460DF088FC013FFADA304600F0F7
:100280004FF8013DE9DC4FF00000BDE8E040704769
:1002900000B508444FF000000DF076FC4FF001006F
:1002A0000DF072FC4FF002000DF06EFC4FF00300F9
:1002B0000DF06AFC4FF004000DF066FC4FF00500F5
:1002C0000DF062FC4FF006000DF05EFC4FF00700F1
:1002D0000DF05AFC104600F023F84FF000000DF02E
:1002E00053FC4FF001000DF04FFC4FF002000DF0F9
:1002F0004BFC4FF003000DF047FC4FF004000DF0F5
:1003000043FC4FF005000DF03FFC4FF006000DF0F0
:100310003BFC4FF007000DF037FC5DF804EB704735
:1003200020B40546013DFDDA4FF0000020BC7047C7
:1003300000B54FF001000DF027FC094908685DF891
:1003400004EB704700B50649086800F10100086039
:100350005DF804EB704700BF00B500BD70470000BA
:1003600000000020002301461A46184603F084B915
:10037000014B1868704700BF0800002038B5084BD3
:10038000084D5B1B9C1007D0043B1D44013C55F8F5
:1003900004399847002CF9D1BDE838400EF084BAF2
:1003A000C4E30108C0E3010870B50D4E0D4D761B86
:1003B000B61006D0002455F8043B01349847A642F5
:1003C000F9D1094E094D761B0EF068FAB61006D029
:1003D000002455F8043B01349847A642F9D170BD7A
:1003E000B8E30108B8E30108C0E30108B8E3010875
:1003F000830730B548D0541E002A3FD0CAB2034606
:1004000001E0013C3AD303F8012B9D07F9D1032CFD
:100410002DD9CDB245EA05250F2C45EA054536D93B
:10042000A4F1100222F00F0C03F1200EE6444FEA73
:10043000121C03F1100242E9045542E90255103240
:100440007245F8D10CF1010214F00C0F03EB02120B
:1004500004F00F0C13D0ACF1040323F003030433B6
:10046000134442F8045B9342FBD10CF003042CB11B
:10047000CAB21C4403F8012B9C42FBD130BD644638
:100480001346002CF4D1F9E703461446BFE71A4699
:10049000A446E0E70EB400B582B003AB816853F820
:1004A000042B019301F0B0FD02B05DF804EB03B042
:1004B000704700BF0FB400B5074983B004AB0868AC
:1004C00053F8042B8168019301F09EFD03B05DF8A1
:1004D00004EB04B0704700BF08000020826806F0FB
:1004E00049B800BF024B01461868826806F042B85E
:1004F0000800002070B5044688B008460D4600F09C
:10050000BFF9154EA26B059001214318CDE9066194
:1005100004A8022104950393A56801900291B2B149
:10052000B5F90C309A0406D46A6E43F4005322F4F1
:100530000052AB816A6601AA2946204604F03AFCC3
:10054000002814BF4FF0FF300A2008B070BD2046CD
:1005500004F0BAFAE4E700BF8CE20108024B01465E
:100560001868FFF7C7BF00BF080000202DE9F0435F
:100570005A4CD4F8008083B004460E4617461D46F8
:10058000B8F1000F03D0D8F83830002B68D0022F14
:1005900005D0012F00F28E80002DC0F28B80214605
:1005A000404604F067F9216B41B104F140039942E0
:1005B00002D0404604F0F8FA00232363B4F90CC0DB
:1005C00000231CF0800FA361636051D12CF44A6CAE
:1005D0002CF0030C022FA4F80CC057D001AB6A46D4
:1005E0002146404604F01CFEA3891843A08125B390
:1005F00026B3D8F838307BB3009BB4F90CC0266022
:10060000AB421CBF4CF4006CA4F80CC0012F04BF1B
:100610004CF0010CA4F80CC01CF00800C4E90465FF
:100620001FFA8CF320D013F001003FD000206D4260
:10063000A060A56103B0BDE8F083009D284604F0EA
:100640001FFE0646002838D0A38943F08003A3810B
:10065000D8F83830002BCFD1404604F035FACBE73C
:10066000404604F031FA92E7A06003B0BDE8F083A1
:100670002169404604F098FAB4F90CC02CF44A6C95
:100680002CF0030C022FA4F80CC0A7D1002004F119
:1006900043034CF0020C00210122C4E90432A4F807
:1006A0000CC0A160236003B0BDE8F083A56003B077
:1006B000BDE8F0834FF0FF30D7E7DDF80090A945A3
:1006C00004D0484604F0DCFD064620B9B4F90CC05D
:1006D0004FF0FF30DBE74D46B6E700BF08000020D3
:1006E0000CB410B59CB01EAB6FF00044CDE90614FD
:1006F0000291084953F8042B059102A9019304942F
:1007000000F022FA029B00221A701CB0BDE81040D3
:1007100002B070470802FFFF0EB410B59DB06FF035
:1007200000411FABCDE906010491094953F8042BA0
:100730000290084C0868019302A9059400F004FA9D
:10074000029B00221A701DB0BDE8104003B0704734
:10075000080000200802FFFF10B5114C86461EF865
:1007600001CB14F80C3003F00303012B11F8013B0B
:10077000624608BF0CF1200214F803C00CF0030C11
:10078000BCF1010F184604D0D21A06D1002BE6D1D5
:1007900010BD2033D01AE2D010BD104610BD00BFEE
:1007A0004DED000880EA0102844612F0030F4FD19C
:1007B00011F0030F32D14DF8044D11F0040F51F830
:1007C000043B0BD0A3F101329A4312F0803F04BFE7
:1007D0004CF8043B51F8043B16D100BF51F8044BD0
:1007E000A3F101329A4312F0803FA4F101320BD100
:1007F0004CF8043BA24312F0803F04BF51F8043B85
:100800004CF8044BEAD023460CF8013B13F0FF0FE1
:100810004FEA3323F8D15DF8044B704711F0010F14
:1008200006D011F8012B0CF8012B002A08BF7047E5
:1008300011F0020FBFD031F8022B12F0FF0F16BFDC
:100840002CF8022B8CF8002012F47F4FB3D17047A4
:1008500011F8012B0CF8012B002AF9D1704700BFC9
:100860000000000000000000000000000000000088
:100870000000000000000000000000000000000078
:1008800090F800F06DE9024520F007016FF0000CD0
:1008900010F0070491F820F040F049804FF0000478
:1008A0006FF00700D1E9002391F840F000F1080053
:1008B00082FA4CF2A4FA8CF283FA4CF3A2FA8CF38B
:1008C0004BBBD1E9022382FA4CF200F10800A4FAF2
:1008D0008CF283FA4CF3A2FA8CF3E3B9D1E9042346
:1008E00082FA4CF200F10800A4FA8CF283FA4CF37D
:1008F000A2FA8CF37BB9D1E9062301F1200182FA37
:100900004CF200F10800A4FA8CF283FA4CF3A2FA3C
:100910008CF3002BC6D0002A04BF04301A4612BA4A
:10092000B2FA82F2FDE8024500EBD2007047D1E94D
:10093000002304F00305C4F100004FEAC50514F0DC
:10094000040F91F840F00CFA05F562EA05021CBFAD
:1009500063EA050362464FF00004A9E7024A126801
:1009600001235C3200F002B808000020F0B4074612
:1009700010B33E468C4616F8010B01E0A04216D09B
:100980001CF8014B002CF9D1D8B116F8015B0C46CC
:1009900001E0002BF9D014F8013B9D42F9D14DB193
:1009A000002306F8013C16603846F0BC70475BB186
:1009B0003746DEE72E46F6E71768002FD9D13846CE
:1009C000F3E7F0BC10607047166038463B70ECE708
:1009D0000123FFF7CBBF00BF2DE9F04707464B4887
:1009E0000E46354616F801CB10F80C4014F00804FA
:1009F000F7D1BCF12D0FE64658D0BCF12B0F04BF48
:100A000096F800E0AE1C5BB1102B54D04FF0FF38CD
:100A1000B8FBF3F803FB08FA6FEA0A0A994608E004
:100A2000BEF1300F5AD00A23DFF8E4804FF0050AF8
:100A300099460025284607E0404515D829D009FBEE
:100A400000C0012516F801EBAEF1300CBCF1090F26
:100A500006D9AEF1410CBCF1190F08D8AEF1370C34
:100A600063450DDD002DE7DA4FF0FF35EAE7AEF123
:100A7000610CBCF1190F03D8AEF1570C6345F1DCE2
:100A8000002D0BDB04B140420AB16DB91160BDE825
:100A9000F087D445D3DD4FF0FF35D3E722233B6009
:100AA0004FF0FF30002AF2D0711EEFE796F800E019
:100AB0000124AE1CA7E7BEF1300F21D1307800F041
:100AC000DF00582816D14FF0100996F801E04FF0DA
:100AD0000F0A02366FF070484B46AAE7337803F0EE
:100AE000DF03582BEFD008234FF0070A6FF0604860
:100AF00099469EE799466FF070484FF00F0A98E7C5
:100B00004FF00F0A6FF07048994692E74DED0008DC
:100B10009999991960E700BF10B4044C84461346B4
:100B200020685DF8044B0A46614655E7080000203E
:100B300010B4044C8446134620685DF8044B0A4602
:100B4000614649E7080000202DE9F04F2DED068BA6
:100B5000BBB088469146099309EE100A04F0E8FA02
:100B6000036810931846FFF78BFEB8F80C300F900F
:100B7000180604D5D8F81030002B00F0E7869FED5A
:100B8000867B0023CDE91E338DED0C7B2AAA0B93C7
:100B90001D9292460E931193069399F80030002B04
:100BA00000F087814C4604E014F8013F002B00F070
:100BB000C580252BF8D1B4EB090540F0C38023781C
:100BC000002B00F0768100234FF0FF3265788DF81E
:100BD000573004F101091846059207939B4609F125
:100BE0000109A5F12002582A00F2DA80DFE812F0AC
:100BF0005E02D800D8005902D800D800D800D8002A
:100C0000D800D8000C025402D80017021C02D800E9
:100C10004F02590059005900590059005900590014
:100C200059005900D800D800D800D800D800D80002
:100C3000D800D800D800D80036026C01D8006C016A
:100C4000D800D800D800D8006602D800D8007800B4
:100C5000D800D800D800D800D8006800D800D80044
:100C60007902D800D800D800D800D800D800D80021
:100C7000D800D800D8006B02CF016C016C016C0168
:100C80009A02CF01D800D8000E03D800F8027A00EB
:100C9000DD02D802D800B602D8006A00D800D80019
:100CA0009F02A5F13002002119F8015B01EB8101DF
:100CB00002EB4101A5F13002092AF5D9079190E72D
:100CC0004BF0100B1BF0200100F05381099B073300
:100CD00023F00703596853F8080B099301230EE02A
:100CE0004BF0100B1BF0200100F03681099B0733FD
:100CF00023F00703596853F8080B099300230024D5
:100D00008DF85740059A561C00F08F822BF0800614
:100D1000039650EA010640F08682002A40F00E83D6
:100D2000002B40F03C851BF00103089300F0AF85D9
:100D300030238DF8A7300DF1A7069BE2B4EB09052F
:100D400000F0B7801F9B2B441F931E9B0133072B82
:100D5000CAE900951E9305DC0AF1080A069B2B449C
:100D600006932CE719EE100A1DAA414605F092FEE3
:100D700018B90DF1A80AF1E7B046B8F80C3013F035
:100D8000400F069B18BF4FF0FF33069306983BB009
:100D9000BDEC068BBDE8F08F0000000000000000F5
:100DA000002B40F0E987002D00F0838000238DF8B0
:100DB000573001238DF880500493089320AE002310
:100DC000CDF80CB005930A93039B13F0020302D0F5
:100DD000049A02320492039A12F0840B05D1079A06
:100DE0000499571A002F00F3A0831F9C9DF85720E9
:100DF0008AB11E9A0DF1570101320134CAF8001070
:100E0000072A4FF001011F941E92CAF8041000F344
:100E1000D9830AF1080A83B11E9B16AA0133023452
:100E2000CAF80020072B4FF002021F941E93CAF845
:100E3000042000F3D6830AF1080ABBF1800F00F00A
:100E40009982059B089AA3EB020BBBF1000F00F3FC
:100E5000D482039BDF0500F11682089BCAF8043098
:100E60001C441E9BCAF800600133072B1F941E937D
:100E700000F34E830AF1080A039B5B0705D5079B25
:100E8000049A9D1A002D00F3B983DDE90632049916
:100E90008A42ACBF9B185B180693002C40F0E88296
:100EA00000231E9399F800300DF1A80A002B7FF45F
:100EB00079AE1F9B002B3FF460AF19EE100A1DAAFC
:100EC000414605F0E7FD58E7002B41F00680099BFD
:100ED000073323F00703B3EC027B8DED0C7BDDE9D8
:100EE0000C67099327F0004308EE903A08EE106A69
:100EF000B64B51EC180B4FF0FF3208F0D5FB002831
:100F000040F0C784B14B51EC180B4FF0FF3208F0A2
:100F1000ADFB002840F0BD84002200233046394656
:100F200008F09AFB002840F0FC869DF85740A84E38
:100F30002BF080030393A74B0022472DC8BF1E460A
:100F40000323CDE9043208930A92002C3FF43CAF0E
:100F5000049B0133049337E71BF0100348D11BF0C7
:100F6000400145D0099A52F8040B0992194680B203
:100F7000C5E61BF0100341D11BF040013ED0099A99
:100F800052F8040B0992194680B20123B7E6002BF0
:100F900040F0A7871BF0200F099B68D0073323F090
:100FA00007031A465B6852F8080B09921946002B92
:100FB000C0F23D84059B013300F085852BF0800352
:100FC000039350EA01039DF8574000F0E483DDF8F5
:100FD0000CB00A2871F1000380F010853030012335
:100FE0008DF8A700CDF80CB008930DF1A70641E1EC
:100FF000099B53F8040B09930B4680E6099B53F8B1
:10100000040B099301237AE6099A52F8041B07910D
:10101000002980F23784079909924942079199F88B
:1010200000504BF0040BDAE5494611F8015B2A2D1C
:1010300000F0C787A5F13002092A894698BF002130
:1010400000F23B8719F8015B01EB810102EB4101E2
:10105000A5F13002092AF5D90591C2E5002B40F02F
:1010600044874BF0100B1BF0200F099B96D153F8CF
:10107000040B09931BF0100F40F0D4831BF0400FBA
:1010800000F0D08340F3C0310B4600B28FE799F8EF
:1010900000504BF0800BA2E599F8005001232B2063
:1010A0009DE599F800504BF0010B98E599F8005038
:1010B00000287FF494AD0123202090E599F800509A
:1010C0004BF0080B8BE5099B00228DF8572053F855
:1010D000042B099301238DF880200493089320AEFC
:1010E0006DE6002B40F0F1863B4B0E931BF0200188
:1010F00025D0099B073323F00703596853F8080BE1
:1011000009931BF0010F0BD050EA010308D03023E4
:101110008DF858308DF859504BF0020B0223EEE554
:101120000223ECE599F800504BF0400B57E5002BFB
:1011300040F0C786294B0E931BF02001D9D11BF03C
:10114000100340F06A831BF0400100F06683099AA7
:1011500052F8040B0992194680B2D2E7099C059B0C
:1011600054F8046B00278DF85770002E00F0E584CA
:101170005A1C00F0FC831A463946304604F040FB06
:10118000002800F08286831B089323EAE373099406
:1011900005979DF85740CDF80CB004930A97D4E614
:1011A00099F800504BF0200B19E5099B53F8040BFC
:1011B0000993302378258DF85830084B0E934BF067
:1011C000020B8DF859500021022398E5FFFFEF7FB5
:1011D00090E2010894E20108B4E20108A0E20108EB
:1011E000002B40F076861BF0200F40F099831BF017
:1011F000100F40F0F5831BF0400F00F0F183099BC6
:10120000069953F8042B09931180C6E499F800500D
:101210006C2D03BF99F801504BF0200B09F1010927
:101220004BF0100BDBE4DDF80CB0012B3FF4D1AE3A
:10123000022B00F08B802AAE00F00703C00840EAC2
:101240004170C908303350EA0107324606F8013DC3
:10125000F2D11BF0010F00F08780302B00F084806A
:101260003023023A06F8013C2AAB9B1ACDF80CB0A9
:1012700008931646059B089A9342B8BF13460493F9
:1012800000230A9361E6652D40F3FC80DDE90C0143
:101290000022002308F0D6F9002800F0EA811E9B06
:1012A000AA4ACAF80020013301340122072B1F94F7
:1012B0001E93CAF8042000F316840AF1080A179B4B
:1012C0000B9A934203DB039BD8077FF5D5AD0F9BA9
:1012D000109A1C44CAE900231E9B1F940133072B5C
:1012E0001E9300F31C840AF1080A0B9B5D1E002D5F
:1012F0007FF7C2AD102D1E9B954F40F3E88319EE8A
:1013000010BA102605E00AF1080A103D102D40F32E
:10131000DE8301331034072BCAE90076CDE91E3491
:10132000F1DD1DAA4146584605F0B4FB00287FF4C4
:1013300024ADDDE91E340DF1A80AE6E7012B00F02B
:101340006F85022BDDF80CB07FF475AF0E9A2AAED4
:1013500000F00F030009D35C06F8013D40EA01707C
:10136000090950EA0103F3D12AAB9B1BCDF80CB05D
:1013700008937FE7079B049AA3EB020BBBF1000FD6
:101380007FF75FADBBF1100F1E9A714F27DD21462D
:10139000102319EE104A06E0ABF1100BBBF1100F51
:1013A0000AF1080A1ADD01321031072ACAE900736E
:1013B000CDE91E21F0DD1DAA414620460DF1A80A07
:1013C00005F068FB00287FF4D8ACABF1100BBBF143
:1013D000100FDDE91E214FF01003E4DC0C46013252
:1013E0005C44072ACDE91E24CAF80070CAF804B08C
:1013F00000F387830AF1080A23E5BBF1100F1E9A58
:10140000534F27DD2146102319EE104A06E0ABF1B9
:10141000100BBBF1100F0AF1080A1ADD013210316E
:10142000072ACAE90073CDE91E21F0DD1DAA414655
:10143000204605F02FFB00287FF49FACABF1100B8A
:10144000BBF1100FDDE91E210DF1A80A4FF01003CA
:10145000E4DC0C4601325C44072ACDE91E24CAF8BC
:101460000070CAF804B000F3CA810AF1080AF0E477
:1014700019EE100A1DAA414605F00CFB00283FF4A6
:101480000FAD7AE40B9B012B40F366811E9DCAF8D9
:101490000060013501340123072D1F941E95CAF801
:1014A000043000F3CE810AF1080A0F9B109A01352F
:1014B0001C44072DCAE90023CDE91E5400F3D48152
:1014C0000AF1080ADDE90C010022002308F0BAF84D
:1014D000002840F069810B9B0135013B01361C441B
:1014E000072DCAF800601E95CAF804301F9400F357
:1014F00044810AF1080A119BCAF8043001351C44E2
:10150000072D19ABCDE91E54CAF800307FF7B2ACF5
:1015100019EE100A1DAA414605F0BCFA00287FF416
:101520002CAC1F9C0DF1A80AA6E4102FDDE91E21AA
:1015300039DD1293CDF84C901024B1460B46464647
:10154000B8462F4619EE105A0BE000BFD0E2010852
:1015500064EE0008A8F11008B8F1100F0AF1080AAB
:1015600019DD0132BE491033072ACAE90014CDE95A
:101570001E23EFDD1DAA314628460DF1A80A05F00D
:1015800089FA00287FF4F8ABA8F11008B8F1100F21
:10159000DDE91E23E5DC3D4619464746129BB04671
:1015A0004E46DDF84C90CAF8047001327C18072AC8
:1015B000AB49CAF80010CDE91E2400F374820AF189
:1015C000080A13E419EE100A1DAA4146129305F009
:1015D00061FA00287FF4D1AB1F9C129B0DF1A80A81
:1015E00019E419EE100A1DAA414605F053FA002825
:1015F0007FF4C3AB1F9C0DF1A80A1EE4102D1E9BA7
:1016000020DD19EE107A102604E0103D102D0AF1AD
:10161000080A17DD0133924A1034072BCAE9002665
:10162000CDE91E34F1DD1DAA414638460DF1A80A68
:1016300005F030FA00287FF4A0AB103D102DDDE955
:101640001E34E7DC0133864ACAF804502C44072BC9
:10165000CDE91E34CAF800207FF717AC19EE100A46
:101660001DAA414605F016FA00287FF486AB1F9CA0
:101670000BE41799002940F3E181DDE90A379F4225
:10168000A8BF1F46002F0BDD1E9B01333C44072BD8
:10169000CAE900671F941E9300F3D7830AF1080A72
:1016A0000A9D002FA8BFED1B002D00F37081179D30
:1016B0000B9B9D4280F23E810F9B109A1C44CAE90D
:1016C00000231E9B1F940133072B1E9300F34483BA
:1016D0000AF1080A0B9B0A9A5D1B9F1AAF42A8BF2A
:1016E0002F46002F0EDD1E9BCAF8047001331644EE
:1016F0003C44072BCAF800601F941E9300F3B58387
:101700000AF1080A002FA8BFED1B002D7FF7B4AB2C
:10171000102D1E9B534F40F3DA8119EE10BA10269C
:1017200005E00AF1080A103D102D40F3D081013385
:101730001034072BCAE90076CDE91E34F1DD1DAA6D
:101740004146584605F0A6F900287FF416ABDDE9BE
:101750001E340DF1A80AE6E7039BDA073FF596AEC3
:101760001E9DCAF80060013501340123072D1F9426
:101770001E95CAF804307FF7BCAE19EE100A1DAAF8
:10178000414605F087F900287FF4F7AADDE91E54E9
:101790000DF1A80AAFE6059B002B40F04183002322
:1017A000059308932AAE65E50B9B5E1E002E7FF71E
:1017B000A2AE102E2B4F40F3CB81CDF814904FF0FA
:1017C000100B19EE109A05E00AF1080A103E102ECF
:1017D00040F3BC8101351034072DCAE9007BCDE907
:1017E0001E54F1DD1DAA4146484605F053F9002874
:1017F0007FF4C3AADDE91E540DF1A80AE6E719EE4D
:10180000100A1DAA414605F045F900287FF4B5AA43
:101810001F9C0DF1A80AFFF71CBB099B53F8040B92
:1018200009936EE4C1170B46002BBFF6C3AB4042D1
:101830004FF02D0461EB41018DF857400123FFF774
:1018400061BA19EE100A1DAA414605F023F90028D5
:101850007FF493AADDE91E540DF1A80A25E600BF26
:1018600054EE000864EE000819EE100A1DAA414665
:1018700005F010F900287FF480AADDE91E540DF16F
:10188000A80A1FE699F800500992FFF7A8B92AAEF6
:10189000F0E4DDE90C0102460B4607F005FF0028E5
:1018A00040F05183059B013325F02003049300F0A1
:1018B000D982472B00F09C80DDE90C014BF480724B
:1018C00000290392C0F232829DED0C7B0027B0EE1E
:1018D00047AAF0EE67AA662D00F07A81462D00F047
:1018E0007781B0EE4A0AF0EE6A0A049B452B0ABFE4
:1018F000059B059C5C1C1BAB019318AB009319EE78
:10190000100A17AB2246022101F07EFF672D064622
:1019100040F092821BF0010F00F0AC8134446FE183
:10192000099B069853F8041B0993C217C1E90002EA
:10193000FFF733B9039BD9073FF5BEAEDDE90A23B4
:101940009F1A5D1BAF42A8BF2F46DBE619EE100AB7
:10195000402103F0A5FCC8F80000C8F810000028DA
:1019600000F03E834023C8F81430FFF708B9304632
:1019700009940597CDF80CB0FEF782FF20EAE073DA
:101980009DF85740089004930A97FFF7DEBA102D90
:101990001E9BB54F40F3B8813A460596474619EE6F
:1019A000106A4FF0100B904605E00AF1080A103D4E
:1019B000102D40F3A58101331034072BCAE9008BA9
:1019C000CDE91E34F1DD1DAA3946304605F062F836
:1019D000002840F0A782DDE91E340DF1A80AE6E7F1
:1019E000099B069953F8042B11600993FFF7D5B8AA
:1019F000059B002B08BF012305935DE7CDF80C90F4
:101A00002AAEA1460A22002304460F4607F08AFEAA
:101A1000303206F8012D0023204639460A2207F00D
:101A200081FE0A2C77F10003ECD22AAB9B1B4C46BB
:101A30000893DDF80C90CDF80CB01BE41E9B8B4A8C
:101A4000CAF80020013301340122072B1F941E9392
:101A5000CAF8042000F372810AF1080A002940F054
:101A60008380039B0B9A03F0010313433FF404AA02
:101A70000F9B10991A19CAE900131E9B1F9201337C
:101A8000072B1E9300F37C810AF1080A0B99CAF810
:101A9000006001338C18072BCDE91E34CAF80410FE
:101AA0007FF7E8A934E519EE100A1DAA4146129302
:101AB00004F0F0FF00287FF460A91F9C129B0DF139
:101AC000A80AFFF793B99DF85740FFF782BA013390
:101AD0002C44072BCAF80070CAF80450CDE91E3414
:101AE0007FF7C8A914E519EE100A1DAA414604F0B3
:101AF000D1FF00287FF441A91F9C0DF1A80AFFF730
:101B0000DEBB19EE100A1DAA414604F0C3FF0028EF
:101B10007FF433A91F9C0DF1A80AFFF792B919EEC3
:101B2000100A1DAA414604F0B5FF00287FF425A93C
:101B30001F9C0DF1A80AFFF7D8BB062B28BF062370
:101B4000CDE908344A4E0493FFF739B9DDF8149013
:101B5000CAF8007001353444072DCDE91E54CAF887
:101B600004607FF7C6AC08E60F9B10981A19CAE903
:101B700000031E9B1F920133072B1E9300F300816D
:101B80000AF1080A002981DA4D421031364F80F2FD
:101B9000B08119EE10BA102405E00AF1080A103DD0
:101BA000102D40F3A68101331032072BCAE90074CF
:101BB000CDE91E32F1DD1DAA4146584604F06AFF08
:101BC00000287FF4DAA8DDE91E320DF1A80AE6E765
:101BD000059CB0EE4A0AF0EE6A0A1BAB019318AB03
:101BE0000093224617AB19EE100A032101F00CFEF8
:101BF000064604193378302B00F09781179B1C445C
:101C000051EC1A0B0022002307F01CFD002840F0C5
:101C1000B1801B9BA34206D230215A1C1B92197023
:101C20001B9B9C42F9D89B1B0B93049B472B28D0F2
:101C3000662D40F0DE81179B059A0A93002B0BF06E
:101C4000010B40F3F1805BEA020140F09F810A9BA7
:101C500004930893002F00F0F3802D238DF8573064
:101C600000230593FFF774B964EE0008D0E2010881
:101C7000C8E201081B9B9B1B0B93049B472B40F066
:101C8000B881179B0A93D91C11DB059A93420EDC8D
:101C9000DDE90A329342C0F204811BF0010F40F0EB
:101CA000638123EAE372049208936725D2E7023D39
:101CB0000A9A8DF86450531E002B1793B6BFC2F1D9
:101CC00001032B222D22092B8DF8652074DC303383
:101CD0008DF8673030238DF86630042311930B9A0A
:101CE000119B012A1344089340F34781089B0F9AE4
:101CF0001344089323EAE373049300230A93A9E7A8
:101D00004246059EB846174601332C44072BCDE9C1
:101D10001E34CAF80070CAF8045040DC0AF1080A00
:101D2000C5E42D248DF85740FFF701B901F10043B8
:101D30000AEE100A0AEE903A2D27CCE519EE100AA9
:101D40001DAA414604F0A6FE00287FF416A81799A4
:101D50001F9C0DF1A80A81E619EE100A1DAA414642
:101D600004F098FE00287FF408A8179D1F9C0DF131
:101D7000A80AAFE4234656E78DF85700FFF713B8DB
:101D800019EE100A1DAA414604F084FE00287EF4D4
:101D9000F4AFDDE91E3217990DF1A80AF2E619EE4B
:101DA000100A1DAA414604F075FE00287EF4E5AF36
:101DB0001F9C0DF1A80A7AE40DF17304DFF840C20C
:101DC000224610468CFB0321DA17C2EBA10202EB7C
:101DD0008201A3EB4101303100F8011C194663294F
:101DE000134600F1FF32ECDC3033D9B2831E9C4243
:101DF00002F8011C40F2F18013460DF1660201E089
:101E000013F8011B02F8011B9C42F9D10DF1750377
:101E10000DF166021B1A134419AA9B1A11935EE76F
:101E2000DDF80CB0FFF7DAB85BEA020340F0B680E9
:101E30000123049308930DE7472D3FF46BAD6DE547
:101E40009DF857400597FFF780B819EE100A1DAAB4
:101E5000414604F01FFE00287EF48FAF1F9C0DF159
:101E6000A80A1DE40623059326E519EE100A1DAA0B
:101E7000414604F00FFE00287EF47FAF179D0B9BB8
:101E80001F9C5D1B0DF1A80A3CE4059B0994CDF84D
:101E90000CB09DF857400493089305900A90FFF703
:101EA00054B80F9A0B9B13440A9A0893002A7DDDBD
:101EB00023EAE37304936725CCE600220592FEF73C
:101EC00090BE8DF85700FFF735B98DF85700FFF732
:101ED0000BB98DF85700FFF786B98DF85700FEF75C
:101EE000F6BF8DF85700FFF755B88DF85700FFF78C
:101EF000B8B801332A44072BCDE91E32CAF8007066
:101F0000CAF804507FF7C0AD19EE100A1DAA414669
:101F100004F0C0FD00287EF430AFDDE91E320DF183
:101F2000A80AB3E5B846FEF728BF51EC1A0B002209
:101F3000002307F087FB00287FF460AE059BC3F108
:101F4000010317935BE60D9B2B4E002BB8BF2D248E
:101F50002BF080030393A8BF9DF85740274BB8BFD1
:101F60008DF85740FEF7E8BF0A9B0F9A1344089379
:101F700023EAE373049367256CE61BF001020A92DF
:101F80007FF4B4AE23EAE373049363E60F990B4442
:101F90001A4422EAE273089204935BE60F9B013332
:101FA0001A4422EAE2730892049353E60A9B089AC1
:101FB000C3F101031A4422EAE273089204936725ED
:101FC00048E6099A99F80150894652F8041B09928B
:101FD00041EAE1710591FEF702BE022311937EE60C
:101FE00019EE102A0C2313604FF0FF330693FEF70F
:101FF000CDBE179B0A935BE698E201089CE20108BC
:1020000067666666000000002DE9F04F2DED068B37
:10201000BBB01C468846914609EE100A054603F0FF
:1020200087F80368109318460994FEF729FC0E9070
:102030001DB1AB6B002B00F04282B8F90C20950467
:1020400093B20AD442F40053D8F86420A8F80C30B4
:1020500022F400529BB2C8F86420180740F1AB800C
:10206000D8F81020002A00F0A68003F01A030A2BEB
:1020700000F0B0809FED947B0023CDE91E338DED01
:102080000C7B2AAA0B931D9292460F9311930793F0
:1020900099F80030002B00F0A4814C4604E014F8BD
:1020A000013F002B00F0E580252BF8D1B4EB0905AA
:1020B00040F0E3802378002B00F0938100234FF061
:1020C000FF32CDE9052365788DF8573004F1010919
:1020D00018469B4609F10109A5F12002582A00F291
:1020E000F780DFE812F07F02F500F5007A02F500D4
:1020F000F500F500F500F500F5002D027502F5007C
:1021000038023D02F500700259005900590059008B
:1021100059005900590059005900F500F500F50023
:10212000F500F500F500F500F500F500F5005702A3
:102130008901F5008901F500F500F500F500B6020A
:10214000F500F5009800F500F500F500F500F50044
:102150008800F500F5009502F500F500F500F500A2
:10216000F500F500F500F500F500F5008702F00137
:10217000890189018901BB02F001F500F500EC023B
:10218000F500D6029A00C502C002F5001B03F50057
:102190008A00F500F500F902A5F13002002119F8D6
:1021A000015B01EB810102EB4101A5F13002092A3B
:1021B000F5D9069190E719EE100A414601F0F2F9BF
:1021C000002841F02681B8F80C3003F01A030A2BDE
:1021D0007FF450AFB8F90E30002BFFF64BAF19EE7D
:1021E000100A23464A4641463BB0BDEC068BBDE88B
:1021F000F04F01F0A1B94BF0100B1BF0200100F0E3
:102200005081099B073323F00703596853F8080BE3
:10221000099301230EE04BF0100B1BF0200100F09E
:102220003381099B073323F00703596853F8080BE0
:102230000993002300248DF85740059A561C00F09E
:1022400091822BF08006039650EA010640F08882C6
:10225000002A40F00D83002B40F01E851BF0010387
:10226000089300F0948530238DF8A7300DF1A70670
:102270009DE2B4EB090500F0B4801F9B2B441F9333
:102280001E9B0133072BCAE900951E9305DC0AF15A
:10229000080A079B2B4407930CE719EE100A1DAAA6
:1022A000414605F0DDF918B90DF1A80AF1E7B0468D
:1022B000B8F80C305B0601F1AC8007983BB0BDEC80
:1022C000068BBDE8F08F00BF00000000000000009A
:1022D000002B40F0E587002D00F0838000238DF86F
:1022E000573001238DF880500493089320AE0023CB
:1022F000CDF80CB005930A93039B13F0020302D0B0
:10230000049A02320492039A12F0840B05D1069AC1
:102310000499571A002F00F3A2831F9C9DF85720A1
:102320008AB11E9A0DF1570101320134CAF800102A
:10233000072A4FF001011F941E92CAF8041000F3FF
:10234000DD830AF1080A83B11E9B16AA0133023409
:10235000CAF80020072B4FF002021F941E93CAF800
:10236000042000F3DA830AF1080ABBF1800F00F0C1
:102370009B82059B089AA3EB020BBBF1000F00F3B5
:10238000D682039BDF0500F11B82089BCAF804304C
:102390001C441E9BCAF800600133072B1F941E9338
:1023A00000F350830AF1080A039B5A0705D5069BE0
:1023B000049A9D1A002D00F3BD83DDE906230499DC
:1023C0008A42ACBF9B185B180793002C40F0EA824E
:1023D00000231E9399F800300DF1A80A002B7FF41A
:1023E0005CAE1F9B002B3FF463AF19EE100A1DAAD1
:1023F000414605F035F95BE7002B40F0F687099B75
:10240000073323F00703B3EC027B8DED0C7BDDE992
:102410000C67099327F0004308EE903A08EE106A23
:10242000B94B51EC180B4FF0FF3207F03DF9002883
:1024300040F0B484B44B51EC180B4FF0FF3207F06E
:1024400015F9002840F0AA840022002330463946BE
:1024500007F002F9002840F002879DF85740AB4E84
:102460002BF080030393AA4B0022472DC8BF1E46C2
:102470000323CDE9043208930A92002C3FF43CAFC9
:10248000049B0133049337E71BF0100352D11BF078
:1024900040014FD0099A52F8040B0992194680B2B4
:1024A000C8E61BF010033FD11BF040013CD0099A55
:1024B00052F8040B0992194680B20123BAE6284665
:1024C00002F002FBB9E5002B40F09F871BF0200FC4
:1024D000099B68D0073323F007031A465B6852F85C
:1024E000080B09921946002BC0F23D84059B01336D
:1024F00000F005852BF08003039350EA01039DF85B
:10250000574000F0C583DDF80CB00A2871F10003D4
:1025100080F0FC84303001238DF8A700CDF80CB09A
:1025200008930DF1A70642E1099B53F8040B0993A8
:1025300001237FE6099B53F8040B09930B4679E6C8
:10254000099A52F8041B0691002980F21B8406990F
:1025500009924942069199F800504BF0040BB9E5F5
:10256000494611F8015B2A2D00F0C587A5F130021C
:10257000092A894698BF002100F2338719F8015BC8
:1025800001EB810102EB4101A5F13002092AF5D9E5
:102590000591A1E5002B40F030874BF0100B1BF0AC
:1025A000200F099B96D153F8040B09931BF0100FD1
:1025B00040F0D4831BF0400F00F0D08340F3C031D3
:1025C0000B4600B28FE799F800504BF0800B81E585
:1025D00099F8005001232B207CE599F800504BF02E
:1025E000010B77E599F8005000287FF473AD0123C3
:1025F00020206FE5099B00228DF8572053F8042B0B
:10260000099301238DF880200493089320AE6EE691
:10261000002B40F0E2863F4B0F931BF0200163D06C
:10262000099B073323F00703596853F8080B0993F4
:102630001BF0010F0BD050EA010308D030238DF8B6
:1026400058308DF859504BF0020B0223F2E502236B
:10265000F0E599F800504BF0080B3BE599F8005075
:102660004BF0400B36E599F800504BF0200B31E56C
:10267000099B53F8040B0993302378258DF85830C3
:10268000254B0F934BF0020B8DF85950002102237C
:10269000D0E5002B40F0AD861BF0200F40F02584E4
:1026A0001BF0100F40F09D841BF0400F00F0998448
:1026B000099B079953F8042B09931180E8E499F8D2
:1026C00000506C2D03BF99F801504BF0200B09F11D
:1026D00001094BF0100BFDE4002B40F092860E4BED
:1026E0000F931BF020019BD11BF0100340F03183AE
:1026F0001BF0400100F02D83099A52F8040B099257
:10270000194680B294E700BFFFFFEF7F90E2010817
:1027100094E20108B4E20108A0E20108099C059BCB
:1027200054F8046B00278DF85770002E00F02784B2
:102730005A1C00F023851A463946304603F060F8EB
:10274000002800F03286831B089323EAE373099480
:1027500005979DF85740CDF80CB004930A978CE686
:10276000DDF80CB0012B3FF4D0AE022B00F08880D6
:102770002AAE00F00703C00840EA4170C9083033B0
:1027800050EA0107324606F8013DF2D11BF0010F75
:1027900000F08480302B00F081803023023A06F86C
:1027A000013C2AAB9B1ACDF80CB008931646059B4A
:1027B000089A9342B8BF1346049300230A935CE639
:1027C000652D40F3F980DDE90C010022002306F0BD
:1027D00039FF002800F0E9811E9BC54ACAF8002095
:1027E000013301340122072B1F941E93CAF80420E1
:1027F00000F36B840AF1080A179B0B9A934280F24C
:10280000BC820E9B109A1C44CAE900231E9B1F9495
:102810000133072B1E9300F3A5830AF1080A0B9BD3
:102820005D1E002D7FF7C0AD102D1E9BB14F40F3F4
:10283000408419EE10BA102605E00AF1080A103D8E
:10284000102D40F3368401331034072BCAE900768B
:10285000CDE91E34F1DD1DAA4146584604F000FFC3
:1028600000287FF425ADDDE91E340DF1A80AE6E766
:10287000012B00F04885022BDDF80CB07FF478AF17
:102880000F9A2AAE00F00F030009D35C06F8013D51
:1028900040EA0170090950EA0103F3D12AAB9B1BFE
:1028A000CDF80CB0089382E7069B049AA3EB020BC9
:1028B000BBF1000F7FF75DADBBF1100F1E9A8D4F7E
:1028C00027DD2146102319EE104A06E0ABF1100B6C
:1028D000BBF1100F0AF1080A1ADD01321031072A84
:1028E000CAE90073CDE91E21F0DD1DAA414620464C
:1028F0000DF1A80A04F0B4FE00287FF4D9ACABF1C6
:10290000100BBBF1100FDDE91E214FF01003E4DCCA
:102910000C4601325C44072ACDE91E24CAF8007037
:10292000CAF804B000F3DF830AF1080A21E5BBF11D
:10293000100F1E9A6F4F27DD2146102319EE104A03
:1029400006E0ABF1100BBBF1100F0AF1080A1ADD1B
:1029500001321031072ACAE90073CDE91E21F0DDEA
:102960001DAA4146204604F07BFE00287FF4A0AC5F
:10297000ABF1100BBBF1100FDDE91E210DF1A80A20
:102980004FF01003E4DC0C4601325C44072ACDE929
:102990001E24CAF80070CAF804B000F3CC810AF112
:1029A000080AEEE419EE100A1DAA414604F058FE8A
:1029B00000283FF40DAD7BE40B9B012B40F37181AC
:1029C0001E9DCAF80060013501340123072D1F94B4
:1029D0001E95CAF8043000F30C830AF1080A0E9B16
:1029E000109A01351C44072DCAE90023CDE91E5475
:1029F00000F30D830AF1080ADDE90C01002200232F
:102A000006F020FE002840F06B810B9B0135013B56
:102A100001361C44072DCAF800601E95CAF8043020
:102A20001F9400F34F810AF1080A119BCAF8043081
:102A300001351C44072D19ABCDE91E54CAF80030EE
:102A40007FF7B0AC19EE100A1DAA414604F008FE4B
:102A500000287FF42DAC1F9C0DF1A80AA4E4102FD0
:102A6000DDE91E2134DD1293CDF84C901024B146DF
:102A70000B464646B8462F4619EE105A06E0A8F116
:102A80001008B8F1100F0AF1080A19DD01321A49CD
:102A90001033072ACAE90014CDE91E23EFDD1DAA71
:102AA000314628460DF1A80A04F0DAFD00287FF42B
:102AB000FEABA8F11008B8F1100FDDE91E23E5DC2C
:102AC0003D4619464746129BB0464E46DDF84C90AF
:102AD000CAF8047001327C18072A0749CAF80010A6
:102AE000CDE91E2400F3D5820AF1080A16E400BFDE
:102AF000D0E2010884EE000874EE000819EE100A16
:102B00001DAA4146129304F0ABFD00287FF4D0AB20
:102B10001F9C129B0DF1A80A15E419EE100A1DAABC
:102B2000414604F09DFD00287FF4C2AB1F9C0DF1CF
:102B3000A80A1AE4102D1E9B20DD19EE107A10262B
:102B400004E0103D102D0AF1080A17DD0133914A07
:102B50001034072BCAE90026CDE91E34F1DD1DAA89
:102B6000414638460DF1A80A04F07AFD00287FF4AA
:102B70009FAB103D102DDDE91E34E7DC0133854AA3
:102B8000CAF804502C44072BCDE91E34CAF80020A3
:102B90007FF713AC19EE100A1DAA414604F060FD40
:102BA00000287FF485AB1F9C07E41799002940F3A8
:102BB0003C82DDE90A379F42A8BF1F46002F0BDD8C
:102BC0001E9B01333C44072BCAE900671F941E93E8
:102BD00000F3CB830AF1080A0A9D002FA8BFED1B62
:102BE000002D00F3D581179D0B9B9D4280F2AE8195
:102BF0000E9B109A1C44CAE900231E9B1F940133AC
:102C0000072B1E9300F3A3830AF1080A0B9B0A9A71
:102C10005D1B9F1AAF42A8BF2F46002F0EDD1E9BE3
:102C2000CAF80470013316443C44072BCAF800600C
:102C30001F941E9300F3A6830AF1080A002FA8BF71
:102C4000ED1B002D7FF7B0AB102D1E9B524F40F3B4
:102C5000308219EE10BA102605E00AF1080A103D7C
:102C6000102D40F3268201331034072BCAE9007679
:102C7000CDE91E34F1DD1DAA4146584604F0F0FCB2
:102C800000287FF415ABDDE91E340DF1A80AE6E754
:102C9000059B002B40F037830023059308932AAE51
:102CA00085E5039BD9073FF58BAE1E9DCAF80060F2
:102CB000013501340123072D1F941E95CAF80430F5
:102CC0007FF7B1AE19EE100A1DAA414604F0C8FC08
:102CD00000287FF4EDAADDE91E540DF1A80AA4E650
:102CE0000B9B5E1E002E7FF7A0AE102E2A4F40F3E6
:102CF0005782CDF814904FF0100B19EE109A05E0A2
:102D00000AF1080A103E102E40F3488201351034B3
:102D1000072DCAE9007BCDE91E54F1DD1DAA41460D
:102D2000484604F09DFC00287FF4C2AADDE91E5449
:102D30000DF1A80AE6E719EE100A1DAA414604F0B3
:102D40008FFC00287FF4B4AA1F9C0DF1A80AFFF79E
:102D500018BB099B53F8040B099369E4C1170B4690
:102D6000002BBFF6C3AB40424FF02D0461EB410195
:102D70008DF857400123FFF760BA039BDD077FF50D
:102D800013AB3EE599F800500992FFF7A3B92AAEBC
:102D90000DE500BF74EE000884EE0008DDE90C01CB
:102DA00002460B4606F080FC002840F06583059B38
:102DB000013325F0200700F0F582472F00F08182D3
:102DC000DDE90C014BF4807200290392C0F24C82C1
:102DD0009DED0C7B00231293B0EE47AAF0EE67AA9C
:102DE000662D00F0E981462D00F0E681B0EE4A0A3A
:102DF000F0EE6A0A452F0ABF059B059C5C1C1BABC5
:102E0000019318AB009319EE100A17AB224602216A
:102E100000F0FAFC672D064640F03D821BF0010FE2
:102E200040F03C821B9B472FA3EB06030B9340F023
:102E30006E83179B0A93D91C03DB059A934240F3D8
:102E40007882023D0A9A8DF86450531E002B179326
:102E5000B6BFC2F101032B222D22092B8DF865206C
:102E600040F3F5820DF17304C04F2246104687FBF4
:102E70000321DA17C2EBA10202EB8201A3EB4101AD
:102E8000303100F8011C19466329134600F1FF3266
:102E9000ECDC3033D9B2831E9C4202F8011C40F2B4
:102EA000278313460DF1660201E013F8011B02F8B7
:102EB000011B9C42F9D10DF175030DF166021B1A3D
:102EC000134419AA9B1A11930B9A119B012A1344BC
:102ED000089340F3C882089B0E9A1344089323EA90
:102EE000E373049300230A939EE1099B079853F828
:102EF000041B0993C217C1E90002FFF7C9B80A28E9
:102F000071F100039DF85740FFF404ABCDF80C902D
:102F10002AAEA1460A22002304460F4606F002FC10
:102F2000303206F8012D0023204639460A2206F0E9
:102F3000F9FB0A2C77F10003ECD22AAB9B1B4C4621
:102F40000893DDF80C90CDF80CB030E4039BD80763
:102F50003FF54EAEDDE90A239F1A5D1BAF42A8BFC5
:102F60002F466BE619EE100A1DAA414604F078FBC5
:102F700000287FF49DA91F9C0DF1A80A4FE4062BA1
:102F800028BF0623CDE90834794E0493FFF7AFB983
:102F9000102D1E9B774F40F355813A4605964746C4
:102FA00019EE106A4FF0100B904605E00AF1080A7E
:102FB000103D102D40F3428101331034072BCAE934
:102FC000008BCDE91E34F1DD1DAA3946304604F0F0
:102FD00047FB002840F04482DDE91E340DF1A80AC9
:102FE000E6E7099B079953F8042B11600993FFF753
:102FF0004FB819EE100A1DAA414604F031FB002813
:103000007FF456A9DDE91E540DF1A80AE7E419EE94
:10301000100A1DAA414604F023FB00287FF448A9AA
:10302000DDE91E540DF1A80AE6E41E9B524ACAF8D7
:103030000020013301340122072B1F941E93CAF88C
:10304000042000F31A810AF1080A002959D1039BD0
:103050000B9A03F0010313433FF4A6A90E9B1099AA
:103060001A19CAE900131E9B1F920133072B1E93E6
:1030700000F32D810AF1080A0B99CAF800600133A8
:103080008C18072BCDE91E34CAF804107FF78AA9E3
:10309000D8E419EE100A1DAA4146129304F0E0FA92
:1030A00000287FF405A91F9C129B0DF1A80AFFF7C9
:1030B00035B901332C44072BCAF80070CAF8045004
:1030C000CDE91E347FF76EA9BCE419EE100A1DAAE3
:1030D000414604F0C5FA00287FF4EAA81F9C0DF1D0
:1030E000A80AFFF789BB19EE100A1DAA414604F091
:1030F000B7FA00287FF4DCA81F9C0DF1A80AFFF79F
:1031000038B90E9B10981A19CAE900031E9B1F922A
:103110000133072B1E9300F3DA800AF1080A002915
:10312000AADA4D421031134F80F2788119EE10BAAD
:10313000102405E00AF1080A103D102D40F36E81BD
:1031400001331032072BCAE90074CDE91E32F1DDDC
:103150001DAA4146584604F083FA00287FF4A8A827
:10316000DDE91E320DF1A80AE6E700BF6766666674
:10317000C8E2010884EE0008D0E201083046099454
:103180000597CDF80CB0FDF77BFB20EAE0739DF8C6
:103190005740089004930A97FFF76FB9DDF8149031
:1031A000CAF8007001353444072DCDE91E54CAF821
:1031B00004607FF738AC85E5059CB0EE4A0AF0EE76
:1031C0006A0A1BAB019318AB0093224617AB19EEAA
:1031D000100A032100F018FB064604193378302B3F
:1031E00062D0179B1C4451EC1A0B0022002306F0FE
:1031F00029FA002800F08B8023469B1B472F0B9356
:103200003FF417AE662D40F08281179B059A0A9312
:10321000002B0BF0010B40F35C815BEA020140F0F4
:1032200045810A9B04930893129B002B7BD02D238E
:103230008DF8573000230593FFF722B94246059ECB
:10324000B846174601332C44072BCDE91E34CAF883
:103250000070CAF8045049DC0AF1080AC3E42D24BE
:103260008DF85740FFF7FBB801F100430AEE903AA2
:103270002D230AEE100A1293B2E519EE100A1DAAC8
:10328000414604F0EDF900287FF412A817991F9C1D
:103290000DF1A80AD9E6472D3FF4C0AD3444A2E7AA
:1032A0008DF85700FFF717B851EC1A0B00220023D6
:1032B00006F0C8F9002894D1059BC3F101031793C8
:1032C00090E7059B002B08BF0123059378E519EED5
:1032D000100A1DAA414604F0C3F900287EF4E8AFA5
:1032E000DDE91E3217990DF1A80A18E719EE100A48
:1032F0001DAA414604F0B4F900287EF4D9AF1F9C02
:103300000DF1A80A6FE4DDF80CB0FFF703B91B9BC1
:10331000A342BFF472AF30215A1C1B9219701B9B41
:103320009C42F9D869E7129B9DF857400593FFF737
:10333000A4B8DDE90A32934243DB1BF0010F40F0F1
:10334000AC8023EAE3720492089367256CE719EED8
:10335000100A1DAA414604F083F900287EF4A8AFA4
:10336000179D1F9C0DF1A80A50E419EE100A1DAA22
:10337000414604F075F900287EF49AAF1F9C0DF1C8
:10338000A80A29E419EE100A1DAA414604F068F9BA
:1033900000287EF48DAF179D0B9B1F9C5D1B0DF1CC
:1033A000A80A4BE4062305930AE5059B0994CDF88A
:1033B0000CB09DF857400493089305900A90FFF7CE
:1033C0005CB80E9A0B9B13440A9A0893002A75DD89
:1033D00023EAE3730493672526E78DF85700FFF788
:1033E0001AB900220592FEF777BE8DF85700FFF755
:1033F00006B88DF85700FFF74FB98DF85700FFF763
:10340000CCB88DF85700FFF76AB98DF85700FFF771
:103410005DB84FF0FF330793FEF74FBF01332A44E7
:10342000072BCDE91E32CAF80070CAF804507FF7A6
:1034300021AE19EE100A1DAA414604F011F9002828
:103440007EF436AFDDE91E320DF1A80A14E6303302
:103450008DF8673030238DF866300423119333E5FF
:10346000B846FEF725BF1BF001020A927FF433AD88
:1034700023EAE3730493D7E60D9B264E002BB8BFD7
:103480002D242BF080030393A8BF9DF85740224BB7
:10349000B8BF8DF85740FEF7E7BF0A9B0E9A13445A
:1034A000089323EAE37304936725BDE60E990B4462
:1034B0001A4422EAE27308920493B5E60A9B089A3A
:1034C000C3F101031A4422EAE273089204936725C8
:1034D000AAE65BEA020303D1012304930893A3E65F
:1034E0000E9B01331A4422EAE273089204939BE68E
:1034F00002231193E8E4099A99F80150894652F899
:10350000041B099241EAE1710591FEF7E3BD179BA7
:103510000A9397E498E201089CE2010810B4054C74
:103520008446134620685DF8044B0A466146FEF760
:103530006BBD00BF0800002070B50C468989ADF551
:103540008D6D21F00201ADF80C10616E1991E189C9
:10355000ADF80E10E1690791616A09911AA900910D
:1035600004914FF480610291059100210691694612
:103570000646FEF749FD051E07DB6946304601F0A9
:1035800079F9002818BF4FF0FF35BDF80C305B0605
:1035900003D5A38943F04003A38128460DF58D6D23
:1035A00070BD00BF38B5334B1B6805460C460BB1E8
:1035B0009A6B12B3B4F90C3018079AB225D5216969
:1035C00000292DD012F0010007D00020A060606912
:1035D0004042A06139B1002038BD950758BF6069ED
:1035E000A0600029F7D1120658BF0846F4D543F071
:1035F0004003A3814FF0FF3038BD184601F064FA54
:10360000B4F90C3018079AB2D9D4D1062AD552078A
:1036100014D4216943F00803A3819AB20029D1D1BF
:1036200002F42070B0F5007FCCD02146284601F08E
:1036300087FDB4F90C3021699AB2C3E7216B51B10F
:1036400004F14002914204D0284601F0ADFAB4F9E9
:103650000C300022226321690022C4E9001223F009
:103660002403D7E7092243F040032A604FF0FF30DC
:10367000A38138BD0800002070B4184C2568D5F827
:1036800048411CB365681F2D25DC38B9AB1C0135DA
:10369000656044F82310002070BC704704EB850C73
:1036A0000228CCF88820D4F888614FF0010202FA91
:1036B00005F246EA0206C4F88861CCF80831E5D183
:1036C000D4F88C311343C4F88C31DFE705F5A674C8
:1036D000C5F84841D6E74FF0FF30DDE750EE00086F
:1036E0002DE9F04F03690C69A34283B0C0F28780D3
:1036F000013C01F11405A30000F11408009355F8F2
:10370000243058F82420013381469A4208EB840083
:1037100005EB84070190B2FBF3F63BD30023AE46E2
:1037200040469B465EF804AB02681FFA8AFC06FB23
:103730000C334FEA134C4FEA1A4A06FB0ACA1FFA27
:1037400083FCABEB0C0C1FFA8AF31CFA82FCC3EB74
:10375000124202EB2C421FFA8CFC4CEA02437745E2
:1037600040F8043B4FEA224B4FEA1A43DAD2009B5F
:1037700058F8033073B9019B043B984504D307E024
:10378000984504F1FF3403D253F80429002AF7D0F6
:10379000C9F81040484602F07FFC00282BDB0136B8
:1037A0004046002355F8041BD0F800C08AB29A1A8C
:1037B0000B0C12FA8CF2C3EB1C4303EB224392B2C4
:1037C00042EA0342AF4240F8042B4FEA2343E9D2D6
:1037D00058F8242008EB84036AB9043B984504D3C5
:1037E00007E0984504F1FF3403D253F80429002A76
:1037F000F7D0C9F81040304603B0BDE8F08F002084
:1038000003B0BDE8F08F00BF2DE9F04F2DED068B22
:1038100095B08DED020B0191016C249D099259EC3C
:10382000108B0446069341B1426C4A6001239340D9
:103830008B6002F075F900232364B9F1000AB4BF6C
:10384000012300232B607C4BBCBF2AF0004ACDF83B
:103850000CA033EA0A0300F0B2809DED027B002247
:1038600051EC170BB0EE479AF0EE679A002305F083
:10387000E9FE074680B1069A01231360259B002BC1
:1038800000F0DB826D481860431E0093009815B06D
:10389000BDEC068BBDE8F08F12AA13A92046B0EE4E
:1038A000490AF0EE690A02F04FFDB0EE498AF0EEE7
:1038B000698A5FEA1A56054640F09980DDE912767A
:1038C0003E4406F23240202840F3AB83C0F1400072
:1038D0000AFA00FA06F2124028FA00F04AEA00005A
:1038E00005F0CEFB0123013E0D93A1F1F871544B7D
:1038F000002205F087FA4AA3D3E9002305F03AFC39
:1039000049A3D3E9002305F07FFA80463046894673
:1039100005F0C6FB46A3D3E9002305F02BFC0246C5
:103920000B464046494605F06FFA8046894605F049
:10393000D1FE0022834600234046494605F08CFE16
:10394000002840F06D82BBF1160F00F25C823D4B07
:1039500003EBCB03D3E9002351EC190B05F07CFEFC
:10396000002875D00023BE1B0C93731E0BF1FF3B88
:10397000049300F14F8200230893BBF1000F6EDA2D
:10398000089BCDF814B0A3EB0B030893CBF1000315
:103990000B93019B092B4FF0000B69D8052B40F3CB
:1039A0003E83043B01930026019B023B032B00F264
:1039B0009986DFE813F04E044B0443042604069A6C
:1039C00042F20F73CAF3130A13605AEA08031DD1B7
:1039D000259B002B00F07D861B4B00930833259A16
:1039E0000098136015B0BDEC068BBDE8F08F18EEA3
:1039F000903AC3F3130351EC190B43F07F510D9729
:103A0000A6F2FF36129F41F4401170E7259B002B70
:103A100040F0DB830D4B009338E700BFAFF300802D
:103A200061436F63A787D23FB3C8608B288AC63FC4
:103A3000FB799F501344D33F0000F07FD1E201088F
:103A40000000F83FA8EE0008D8E20108D4E201081F
:103A5000BE1B731E049300F19A840C900890049B83
:103A60005B44CDE9043B00230B93019B092B95D9C3
:103A7000002301264FF0FF3201930A960792099323
:103A8000079B0F9300216164204602F023F8009009
:103A9000002800F02F86009B2364079B0E2B00F26A
:103AA000F980002E00F0F6800599002940F371841A
:103AB000BD4B01F00F0203EBC2034FEA2118C90509
:103AC000D3E9006740F10384B84B51EC190BD3E9FB
:103AD000082305F079FC41EC180B08F00F084FF0B3
:103AE000030AB8F1000F13D0DFF8C09218F0010FED
:103AF00009D030463946D9E9002305F03BFB0AF1ED
:103B0000010A06460F465FEA680809F10809EDD187
:103B100051EC180B32463B4605F056FC41EC1A0BB3
:103B20000C9B5BB157EC1A6BA14B1AEE100A0022EA
:103B3000394605F091FD002840F05285504605F0C9
:103B4000AFFA53EC1A2B05F015FB9A4B002205F047
:103B50005BF9079B8046A1F15079002B00F0F383BD
:103B6000059B1093079B0E930A9B002B00F0C084CB
:103B70000E9A8D4B9049DDF800A003EBC20353E988
:103B80000223002005F020FC42464B4605F03AF99E
:103B900059EC1A8B41EC180B49461AEE100A05F045
:103BA00099FD074605F07CFA02460B461AEE100A0C
:103BB000494605F027F930370AF8017B53EC182BFA
:103BC00006460F4605F048FD002840F055854FF0A9
:103BD00000080AEE105ACDF844B055465BEC18AB1D
:103BE00008EE104A44462AE00E9B01349C424BDA10
:103BF000724B50465946002205F0BCFA6F4B00222A
:103C000082468B463046394605F0B4FA89468046EE
:103C100005F060FD074605F043FA02460B464046B4
:103C2000494605F0EFF8303705F8017B52465B4610
:103C300006460F4605F010FD002840F01885324674
:103C40003B465B49002005F0DDF852465B4605F037
:103C500003FD0028C8D0109B009A0593AA4618EED1
:103C6000104A1AEE105A02E0924500F0EA84D1465A
:103C70001AF8013D392BF7D00133DBB28AF8003056
:103C8000059B01330593ABE1DDF844B01AEE105A01
:103C900018EE104A139B002BC0F29480059A0E2A4E
:103CA00000F39080404B03EBC203D3E90089099BEA
:103CB000002B1BDA079B002B18DC40F05D83404B88
:103CC00000224046494605F055FA02460B4651ECA3
:103CD000190B05F0CBFCDDF81CA05646002800F0BF
:103CE000D082099BDDF80080DF43D2E242464B469A
:103CF00051EC190B05F068FB05F0ECFC0646834619
:103D000005F0CEF942464B4605F034FA0B46024622
:103D100051EC190B05F076F8DDF800A0334630338E
:103D20000AF8013B079B012B00F08E834FF0010B3B
:103D300008EE105A08EE904A1D465446DA461DE039
:103D400042464B463046394605F03EFB05F0C2FC84
:103D5000834605F0A5F942464B4605F00BFA0AF1F9
:103D6000010A0B4602463946304605F04BF80BF186
:103D70003003AA4504F8013B00F061830F4B002299
:103D800005F0F8F90022002306460F4605F05AFC1C
:103D90000028D5D0A24618EE105A18EE904A059B7E
:103DA00001330593D1461BE1A8EE000898EF000807
:103DB0000000F03F00001C400000E03F00002440F5
:103DC000000014400A9A002A3FD0019A012A40F3C9
:103DD0009C82079B03F1FF380B9B4345C0F26E8228
:103DE000A3EB0808079B002BC0F26683049A1A44D1
:103DF0000492089A17461A4408920121204601F0BD
:103E000097FF064625E00123BE1B0C93731E049307
:103E10007FF5B1ADC6F10103089300230493ACE52F
:103E2000584605F03DF942464B4605F00BFC00288C
:103E30007FF489AD0BF1FF3B85E5874B009300983C
:103E400015B0BDEC068BBDE8F08FDDF82C80089F27
:103E50000A9E002F0CDD049A002A09DD0899BA4257
:103E60001346A8BF3B46C91AFF1AD31A08910493F8
:103E70000B9BDBB10A9B002B00F08282B8F1000F94
:103E80000FDD31464246204602F02EF82A46014612
:103E90000646204601F07AFF29460546204601F0F5
:103EA0003FFE0B9BB3EB080240F00083012120464C
:103EB00001F03EFFBBF1000F824600F3B780019B8B
:103EC000012B40F386814FF000080120BBF1000F69
:103ED00040F0B880049A104410F01F0000F0968063
:103EE000C0F12003042B40F3F883089BC0F11C00B1
:103EF00003440244089307440492089B002B05DD09
:103F000029461A46204602F04FF80546049B002B2E
:103F100005DD51461A46204602F046F882460C9BC3
:103F2000002B40F03781079B002B40F31E810A9B3A
:103F3000002B40F0A180059B01330593DDF8008044
:103F4000DDF81C90012707E0294600230A222046BD
:103F500001F0F0FD0137054651462846FFF7C0FB4A
:103F60004F4500F1300008F8010BEDDB079A002AFD
:103F7000C8BF9346009AD8BF4FF0010B0346934445
:103F80000027294601222046019302F00DF85146F0
:103F9000054602F081F8002840F3A5811BF8013C9A
:103FA000009A0BF1FF3B04E05A4500F0A7811BF893
:103FB000013D392B0BF10109F6D001338BF80030AC
:103FC0005146204601F0ACFD56B12FB1B74203D0A7
:103FD0003946204601F0A4FD3146204601F0A0FDFF
:103FE0002946204601F09CFD002389F80030DDE9D8
:103FF00005231A60259B002B3FF448AC0098C3F8BA
:10400000009015B0BDEC068BBDE8F08F1C20089B1E
:1040100003440893049B0344074404936DE701267B
:10402000C2E4C0F1200008FA00F059E401465A4603
:10403000204601F059FF019B012B824640F3D581B8
:104040004FF00008DAF810300AEB8303186901F02A
:104050001FFEC0F120003DE7D0E2010831460023F9
:104060000A22204601F066FD0F9B002B064640F316
:104070002383CDF814900793002F00F31881B8F133
:10408000000F40F0FC81B046029B009F079903F0AF
:1040900001027B1E1944019B0A9213430891099364
:1040A00051462846FFF71CFB31468346284601F05F
:1040B000F3FF424651468146204602F00FF8C2689F
:1040C00001460BF13003002A42D1049028460793A1
:1040D00001F0E2FF04990290204601F021FD029ACE
:1040E000079B1AB90999002900F0D682B9F1000F8F
:1040F000C0F28781019949EA01090A9951EA090147
:1041000000F07F81002A00F3E781089A3B7007F1F5
:1041100001099742CB4600F0E581294600230A2297
:10412000204601F007FD4645054631464FF00003A5
:104130004FF00A02204612D001F0FCFC4146064630
:1041400000230A22204601F0F5FC4F468046A7E7EF
:104150002046029301F0E4FC029B0122C6E701F035
:10416000E9FC4F46064680469AE7019B022B77DC26
:104170000A9B002B80D1059B5146013328460593AD
:10418000FFF7AEFADDF800B000F130030BF8013BA9
:104190000027F6E65146284601F07EFF0028BFF6CC
:1041A000C2AE294600230A22204601F0C3FC059B2B
:1041B00003F1FF390A9B0546002B7FF44FAF0F9B9D
:1041C000002B40F370820793B8E6BD4B0093033396
:1041D00005E4DDE9021200297FF475AEC2F3130392
:1041E000002B7FF470AEB74B1340002B00F03D82E4
:1041F000089B01330893049B013304934FF001089B
:1042000063E601230A93099B059A13440F93013334
:10421000012B1F460793B8BF01270021172F6164A8
:104220007FF732AC012204235B0003F11400B84293
:10423000114602F10102F7D9616425E401230A93D2
:10424000099F002F4ADD0F970797E6E700230A939F
:10425000D9E700230A93F3E70F9BCDF81490079357
:10426000079B002B7FF43DAD51460522204601F00F
:1042700061FC01468246284601F00EFF00287FF7C8
:1042800030AD0098059F3123804600F8013B01378F
:1042900000905146204601F043FC7B1CDDF8009065
:1042A0000593CDF80080002E7FF496AE98E6314657
:1042B0003A46204601F078FE0646E0E60B9BCDF834
:1042C0002C80A8EB03039B444FF000088AE54FF0D5
:1042D000020AB0EE498AF0EE698A02E401230993EA
:1042E0000793FFF7CDBB03D1019BDB073FF556AE2C
:1042F000D9461BF8013D302BFAD061E6059B009AA8
:1043000001330593312313705AE60D9A002A00F009
:10431000638103F23343049ADDF82C801A4404923B
:10432000089A17461A44089267E5504604F0B8FE0A
:1043300053EC1A2B04F01EFF634B002204F064FDC3
:104340008046A1F15079614B002251EC1A0B04F028
:1043500059FD42464B4606460F4605F09BF900289C
:1043600040F07F8130463946424609F1004305F06E
:1043700073F900283FF48EAC4FF0000A5646B0E4C3
:1043800029460B9A204601F0AFFD05468EE50C90BC
:1043900040E500F04E81059A4D4B564206F00F0263
:1043A00003EBC203D3E9002351EC190B04F0E2FE46
:1043B000361141EC1A0B00F08881464F00234FF074
:1043C000020AF20706D5D7E9002304F0D3FE0AF16A
:1043D000010A0123761007F10807F2D1002B3FF400
:1043E0009FAB41EC1A0BFFF79BBB029B002B7FF4AA
:1043F00027AEDDE90212C2F31303002B3FF4F3AE44
:104400001EE6002A12DD294601222046019301F012
:10441000CBFD5146054601F03FFE0028019B40F3CD
:104420003581392B00F013810BF13103B94609F8BE
:10443000013B059B0133374605934646C0E5A2463E
:1044400018EE105A18EE904A02460B4604F0DCFCB7
:1044500042464B4606460F4605F01CF960B94246F7
:104460004B463046394605F0EDF800283FF497AC4E
:104470005FEACB717FF593AC009AFFF7F8BB7168E8
:10448000204601F027FB0746002800F03A813369F7
:1044900002339A0006F10C010C3001F001FA3946A2
:1044A0000122204601F080FD8046EDE529462046A8
:1044B00001F01AFD0546F9E4DDE907239F1A9CE4A3
:1044C000D4E201080000F07F00001C40000014400E
:1044D000A8EE000898EF0008392B00F0B880B94624
:1044E0000133A4E7059A013237460592464648E56E
:1044F0000E988D4901EBC00142464B4651E902013D
:1045000004F038FE5AEC1A9B41EC180B51461AEE97
:10451000100A05F0DFF8074604F0C2FD02460B461C
:104520001AEE100A514604F06DFC06460E98DDF8AE
:1045300000803037012808F8017B0F4600F0BA8070
:104540000E9B009ACDF838B013449B46C246774B79
:1045500000223046394604F00DFE8946804605F0BB
:10456000B9F8074604F09CFD303702460B4640463A
:10457000494604F047FC0AF8017BDA4506460F4637
:10458000E5D1DA46DDF838B0694B59EC188B0022DA
:1045900018EE100A494604F037FC32463B4605F057
:1045A0005BF800286DD118EE102A4B4660490020B8
:1045B00004F028FC32463B4605F06CF800283FF436
:1045C00069ABD1460AF1FF3A19F8013C302BF8D01B
:1045D000109B0133059303E5129BC3F136039AE662
:1045E000079B002B3FF4A1AE0F9B002B7FF752AB34
:1045F000059A0E93013A4D4B10921AEE100A394665
:10460000002204F0B7FD024616460F460AF10100EB
:1046100004F046FD32463B4604F0ACFD454B00221B
:1046200004F0F2FB47EC1A6B8046A1F15079FFF7DA
:104630009BBA4FF0020AB0EE49AAF0EE69AAFFF762
:104640006FBA059B013305933123FFF717BB059B19
:10465000BB4601330593392337460BF8013B4646E9
:104660009EE44FF0000A56460BE698462DE4AA4613
:1046700018EE104A1AEE105A109B01330593D146DA
:10468000AEE4109B009A0593FFF7F1BA7FF4CEAE2B
:10469000DA077FF5CBAEC4E6392BD8D0B9F1000FDD
:1046A0003FF7C2AEC2E6019B022B3FF7D5ADCDF876
:1046B000149060E5C24667E7019B022B3FF7CCAD43
:1046C0000F9BCDF814900793D6E44FF0020AFFF742
:1046D00027BA194B0093FFF7D9B83FF40EACC0F1DD
:1046E0003C0094E4002666643146204601F0F2F96D
:1046F000009068B9114B124800224FF4D57103F0B5
:1047000079FE0E4B0E483A4640F2EA2103F072FE63
:10471000009B236401224FF0FF3309960F930A9206
:104720000793FFF7B7BA00BFA8EE000800002440C7
:104730000000E03F00001C40D8E20108E4E201086C
:10474000F8E20108B1F90C202DE9F0410C461107FF
:10475000804647D4636842F40062002BA2815EDD8C
:10476000A56A002D58D00023D8F80060C8F80030A2
:1047700093B212F4805256D10123E1694046A84712
:10478000431C67D0A389A56A5F0705D56368C01A73
:10479000236B0BB1E36BC01AE1690246002340466C
:1047A000A847411C41D1D8F80030002B3DD01D2B2B
:1047B00001D0162B56D1A3892269226023F400630D
:1047C00000216160A381216BC8F8006021B304F16E
:1047D0004003994202D0404600F0E6F900202063F1
:1047E000BDE8F0812669BEB193B2256826609A07BC
:1047F0000CBF63690023AD1BA3600BE02B46324660
:10480000E169676A4046B847B0F1000CA5EB0C05BA
:10481000664417DD002DF1DC0020BDE8F081E36B7C
:10482000002B9DDCF8E7206DAEE7B4F90C3022696F
:10483000226023F40063A3810022DB046260C2D5FE
:104840002065C0E7A38943F040034FF0FF30A38108
:10485000BDE8F081D8F80030002B93D01D2B06D096
:10486000162B04D0A38943F04003A381D5E7C8F8F1
:104870000060D1E738B50D46044608B1836B1BB123
:10488000B5F90C0030B938BD00F01EF9B5F90C00CF
:104890000028F8D029462046BDE83840FFF752BF2F
:1048A00038B5B8B10F4B1D6804460DB1AB6B4BB1B9
:1048B000B4F90C0000B938BD21462846BDE838409F
:1048C000FFF740BF284600F0FFF8B4F90C000028BD
:1048D000F1D0F1E7044B05491868BDE8384000F015
:1048E00001BC00BF0800002050EE00087548000819
:1048F00000207047014900F0F5BB00BF05850008A6
:10490000002070472DE9F84F2D4A4668C263002405
:104910000323C0E9B843074600F53B720423C0F8FF
:10492000E8222146C6E902430822C6E90044C6E956
:1049300004447466B46106F15C00FBF759FDDFF8CE
:104940008CB0BD68DFF888A0DFF88890DFF8888039
:104950001C4BC6F824A0C6E9076BC6F82890C6F819
:104960002C800822EB60C5E90044C5E904446C666C
:10497000AC60AC61214605F15C00FBF739FDC5E98F
:10498000075BC5E909A9C5F82C80FD680E4BEB60F3
:10499000C5E90044C5E904446C66AC60AC612146DD
:1049A000082205F15C00FBF723FD0123C5E9075B45
:1049B000C5E90A98C5F824A0BB63BDE8F88F00BF1D
:1049C000F54800080900010012000200056A00080D
:1049D0002D6A00086D6A00088D6A000870B56822AB
:1049E0004D1E02FB05F50E4605F1740100F058FC62
:1049F000044640B100210C30C4E90016A06005F166
:104A00006802FBF7F5FC204670BD00BF274B2DE97F
:104A1000F0411E68B36B07465BB306F538764FF07E
:104A20000408D6E90134013B04D51EE05A1C04F108
:104A300068041AD0B4F90C50013B002DF6D11C4B80
:104A40006566C4E90055C4E90253C4E90455A5618B
:104A50000822294604F15C00FBF7CAFCC4E90C55A6
:104A6000C4E911552046BDE8F08135682DB12E46C8
:104A7000D7E73046FFF746FFCFE74FF4D671384609
:104A800000F00EFC044668B10560C0F804800C30EC
:104A90002946A06025464FF4D072FBF7A9FC34608C
:104AA0002E46BEE70C2330603B60DBE750EE00088B
:104AB0000100FFFF024B0349186800F013BB00BF61
:104AC00050EE000805850008836B03B1704719E7B5
:104AD000704700BF704700BF704700BF704700BFFE
:104AE000024B0349186800F0DDBA00BF080000203F
:104AF000F1480008024B0349186800F0D3BA00BF20
:104B00000800002001490008F8B5244F0C4606466D
:104B100000F0DCFFBA685568C4F57E630F3325F0FA
:104B200003052B4423F47F6323F00F03A3F5805484
:104B3000B4F5805F07DB0021304605F0D9FABB6889
:104B40002B44984204D0304600F0C2FF0020F8BD4C
:104B50006142304605F0CCFA01300DD0104ABB68F6
:104B60002D1B45F001055D60136830461B1B13606B
:104B700000F0AEFF0120F8BD0021304605F0B8FA84
:104B8000BA68831A0F2BDEDD43F001035360054B37
:104B900003491B68C01A0860D5E700BF380400202D
:104BA000440C002040080020002961D0F8B50C46D4
:104BB000064600F08BFF54F8042C7B4FA4F1080547
:104BC00022F0010105EB010CB868DCF80430604507
:104BD00023F0030300F08B80D207CCF8043032D4EA
:104BE00054F8082CAD1A1144AA6807F10800824253
:104BF0006AD00CEB0304D4F804E0EC68D4601EF037
:104C0000010FA26000F0978041F001036B60CCF8C7
:104C10000010B1F5007F35D27A68CB084809012130
:104C2000013381401143796007EBC30257F8331019
:104C3000083AC5E9021247F83350CD603046BDE866
:104C4000F84000F045BF0CEB03025268D00710D4C7
:104C5000194407F10800DCF80830834273D0DCF80F
:104C60000C20DA60936041F001036B606950D0E77B
:104C7000704741F00103B1F5007F44F8043CCCF8E3
:104C80000010C9D3B1F5206F4FEA512348D28B09E8
:104C900003F1390003F13802C300F818FB58083853
:104CA000984259D05A6822F003028A4202D99B687E
:104CB0009842F7D1D868C5E902308560DD6030469A
:104CC000BDE8F84000F004BF0CEB03025268D207C5
:104CD00063D40B44DCE90212CA60916043F0010224
:104CE0006A603046EB50BDE8F84000F0F1BE0B447E
:104CF000D10707D454F8082CAD1A1344D5E9021291
:104D0000CA60916043F001026A60284ABD6012687F
:104D10009A4293D8264B30461968FFF7F5FE8DE787
:104D2000142B0AD9542B1FD80B0B03F16F0003F17E
:104D30006E02C300B1E719448DE703F15C0003F193
:104D40005B02C300A9E741F00103C7E90455C5E9C7
:104D500002006B60695071E779689210012404FACF
:104D600002F20A437A60A6E7B3F5AA7F06D8CB0B16
:104D700003F1780003F17702C3008EE740F254524A
:104D8000934206D88B0C03F17D0003F17C02C30033
:104D900083E74FF47E737E227FE741F001036B606F
:104DA000CCF800104AE700BF380400204408002077
:104DB000400C00209368002B00F085802DE9F04F17
:104DC000B1F90C300C461907804683B0174698B2EB
:104DD00025D523691BB310F002033D682DD04FF099
:104DE000000ADFF8BCB25646B9465E453346524625
:104DF00028BF5B464046002E52D0E169676AB8473B
:104E0000002856DDD9F808301B1A8244361AC9F832
:104E10000830002BE9D1002003B0BDE8F08F214617
:104E20004046FEF7BFFB002840F03681B4F90C3055
:104E30003D6898B210F00203D1D110F0010944D1BD
:104E40004E46009746B38205D4F808B040F18380FF
:104E5000B3455A4600F2B28010F4906F40F0BF8024
:104E600020680192494600F0B5FDA368019AA3EBC2
:104E70000B012368A1601344B24623600026009B07
:104E80009868A0EB0A00D14498600028C3D0B4F918
:104E90000C0080B2002ED6D1D5E900960835D1E7B6
:104EA000D5E900A60835A0E721464046FFF7E2FC19
:104EB00080B3B4F90C3043F040034FF0FF30A381CE
:104EC00003B0BDE8F08F002070471E46AA46994601
:104ED00018461D46009756B388B34A46D4E90413D2
:104EE0002068B24228BF3246884205D9A16803EB48
:104EF000010B5A4500F3A680934263DCE169676ABF
:104F00002A464046B847B0F1000BD2DDB9EB0B0999
:104F1000CAD00120009A9368A3EB0B035D44A6EB73
:104F20000B069360002B3FF476AF002ED4D10AF12C
:104F3000080353E902569A460833002EF9D0324648
:104F40000A21284600F05CFC002800F09C8001301B
:104F5000A0EB0509C1E720682369984216D8636968
:104F6000B34213D86FF00042B24228BF3246E16923
:104F700092FBF3F2676A02FB03F340464A46B847E6
:104F8000B0F1000A95DDA6EB0A0678E7B345DA46EC
:104F900028BFB2465246494600F01CFDA36822686D
:104FA000A3EB0A035244A3602260002BEBD12146FD
:104FB0004046FFF75FFC0028E5D07AE72068B3465B
:104FC00032464EE72946019200F004FD019AA3689B
:104FD0009B1AA360236813442360934696E72368D3
:104FE0002169A3EB010B636903EB430A0AEBDA7A4D
:104FF0000BF101034FEA6A0A33445345524684BF1A
:105000009A46524643052CD51146404600F048F9D1
:1050100000283BD05A462169019000F041FCA2894A
:10502000019B22F4906242F08002A28103EB0B000C
:105030002361AAEB0B03C4F814A0A3602060B3465D
:1050400032460EE729465A4600F0C4FC23685B440A
:10505000236021464046FFF70DFC00283FF456AF81
:1050600027E7404601F0E2FA03460028DED1216935
:105070004046FFF799FDB4F90C300C2223F0800371
:10508000C8F8002017E7721C914627E70C22B4F9F4
:105090000C30C8F800200EE74FF0FF30BCE600BF30
:1050A00000FCFF7F2DE9F041884600F538770026A7
:1050B000D7E90154013D0FD4A389012B05F1FF3538
:1050C00006D9B4F90E300133204601D0C04706435B
:1050D0006B1C04F16804EFD13F68002FE8D1304623
:1050E000BDE8F0812DE9F8430746884600F538769B
:1050F0004FF00009D6E90154013D11D4A389012BD9
:1051000005F1FF3508D9B4F90E300133214603D03B
:105110003846C04749EA00096B1C04F16804EDD128
:105120003668002EE6D14846BDE8F883F030704777
:1051300000487047380900200048704738090020AF
:105140002DE9F0418B890C46990796B008D504F1FA
:1051500043030122C4E90432236016B0BDE8F081A4
:10516000B4F90E100029064627DB6A4604F0DBFF7F
:10517000002821DB019D05F47045A5F50055B5FA21
:1051800085F54FF480686D094FF40067414630465D
:1051900000F086F8B4F90C30F0B1204AF26343F025
:1051A0008003C4F81480A3812060206135BB3B4399
:1051B000A38116B0BDE8F081A38913F0800519D052
:1051C0004FF040084146304600F06AF80025B4F937
:1051D0000C302F460028E0D19A05BED423F00303FB
:1051E00004F1430243F002030121C4E90421A38135
:1051F0002260B2E74FF480682F46C7E7B4F90E107B
:10520000304604F095FF10B9B4F90C30CFE7A3890C
:1052100023F0030343F001031BB2C8E7F54800087D
:1052200070B50C46B1F90E10002996B015461E4611
:1052300014DB6A4604F077FF00280FDB019A02F4C2
:105240007042A2F50052B2FA82F24FF48063520922
:105250004FF4006032602B6016B070BDB4F90C10D2
:10526000002311F08000336004D0402218462A60E9
:1052700016B070BD4FF480632B6016B070BD00BFD8
:10528000024B0146186800F00BB800BF0800002070
:10529000024B01461868FFF787BC00BF08000020DA
:1052A0002DE9F04F01F10B06162E83B0044624D8E9
:1052B000102900F2BA8000F009FC10261822022002
:1052C000B74F3A44A2F1080153688B4200F0BA800C
:1052D0005A68D96822F003021A449D68E9608D601B
:1052E000516841F001012046516003F1080500F0CA
:1052F000EFFB284603B0BDE8F08F36F0070600F15B
:105300009480B14200F2918000F0E0FBB6F5FC7FA2
:10531000C0F09681730A00F08F80042B00F26B813D
:10532000B30903F1390003F1380CC3009C4F3B442F
:10533000A3F108055B689D4206D10CE0002980F2CC
:105340002B81DB689D4206D05A6822F00302911B34
:105350000F29F3DD60463D69DFF848C265457CD022
:105360006A6822F00302931B0F2B00F37781002B56
:10537000C7E904CC80F26881B2F5007F80F0168125
:10538000D308796801334FEA521E012202FA0EF265
:105390000A4357F833E0C5F808E007EBC3010839C2
:1053A000E9607A6047F83350CEF80C508310012141
:1053B0009940914257D8114206D120F0030049008C
:1053C000114200F10400FAD007EBC0094D468646B1
:1053D000D5F80C80454508D119E1002B80F22081D9
:1053E000D8F80C80454500F01281D8F8042022F04E
:1053F0000302931B0F2BF0DD2046D8E9025408EB83
:10540000060146F00106C8F80460EC60A56043F0B0
:105410000104C7E90411C1E902CC4C6048F802302C
:1054200000F056FB08F1080502E00C23236000257C
:10543000284603B0BDE8F08F4FF4007340204FF0D2
:105440003F0C73E7D3689A4208BF02307FF440AF45
:105450003D69DFF850C1654582D17A68831001212A
:1054600099409142A7D9BD686B6823F0030846456F
:1054700003D8A8EB06030F2B7EDCDFF82C91D7F8BE
:105480000824D9F800300132334405EB080A00F053
:105490002F8103F580530F3323F47F6B2BF00F0B19
:1054A0005946204604F024FE411C024600F0EF80DD
:1054B000824500F2EA80D9F804105944C9F8041072
:1054C0000B4600F04B81D7F8081401311BBFA2EB4B
:1054D0000A0A5344C7F80824C9F8043012F0070335
:1054E00000F01281C3F108010A44C3F580519344CE
:1054F0000831A1EB0B01C1F30B0A51462046019282
:10550000009304F0F5FD421CDDE9003200F04B8110
:10551000831A03EB0A0BD9F80400BA604BF00103BD
:105520000AEB0001BD425360C9F8041000F022816B
:10553000B8F10F0F40F220816B68A8F10C0020F049
:10554000070003F0010303436B604FF0050C2B18B9
:105550000F28C3E901CC00F22D8153681546D9F814
:105560002C208A42D9F8302038BFC9F82C108A4242
:1055700038BFC9F830108CE0AA1943F0010346F097
:1055800001066E602046BA60536000F0A1FA08354B
:10559000284603B0BDE8F08FD9681A449DE600BFE5
:1055A0003804002040040020400C0020B2F5206F99
:1055B0004FEA522363D3142B00F2B88003F15C014D
:1055C000C9005B3307EB010E7958AEF1080E8E452A
:1055D00000F091804B6823F00303934202D989685D
:1055E0008E45F7D1D1F80CE07A68C5E9021ECEF8F5
:1055F0000850CD60DAE6142B59D9542B00F29E8066
:10560000330B03F16F0003F16E0CC3008EE60EF155
:10561000010E1EF0030F05F108057FF4D9AE51E02D
:10562000424445465368D8F80C1043F001035360D8
:1056300055F8083F2046D9608B6000F049FAF7E63C
:10564000F00806F108023BE62A442046536843F07E
:1056500001035360083500F03BFAE9E6A91920463A
:1056600046F0010643F001046E60C7E90411C1E988
:1056700002CC4C60AB5000F02BFA0835D8E6930909
:1056800003F13901C90038339CE7BD4260D0BD68E1
:105690006B6823F0030B5E45ABEB060302D80F2BC0
:1056A0003FF76AAF204600F013FA0025C0E603F189
:1056B0005C0003F15B0CC30038E659F808394B4530
:1056C00040F0968010F0030F00F1FF30F5D17B68B9
:1056D00023EA01037B60490099423FF6C4AE19B941
:1056E000C1E649000EF1040E1942FAD070466BE68D
:1056F00003F1100BD4E69A104FF001087B6808FA0A
:1057000002F21A437A6070E702EB0B014942C1F3DF
:105710000B0A514620460193009204F0E9FC431C19
:10572000DDE900237FF4F4AE9A46F4E6542B26D844
:10573000130B03F16F01C9006E3343E7B3F5AA7F82
:1057400026D8F30B03F1780003F1770CC300EDE5E5
:10575000D9F804305B44C9F80430B4E6CAF30B004E
:1057600000287FF4B0AEBD6808EB0B0343F00103E3
:105770006B60F4E61546F2E60123536092E7B3F559
:10578000AA7F21D8D30B03F17801C900773319E739
:1057900040F25452934221D8B30C03F17D0003F13F
:1057A0007C0CC300C2E5083B9B44ABEB020B4FF003
:1057B000000AB0E605F108012046FFF7F5F9BD68DB
:1057C000D9F804106B68CAE640F254518B420BD8EA
:1057D000930C03F17D01C9007C33F3E64FF47E7333
:1057E0007F204FF07E0CA1E54FF47E717E23E9E629
:1057F0007B6870E70000000000000000000000006F
:1058000001F0FF01102A2BDB10F0070F08D010F871
:10581000013B013A8B422DD010F0070F42B3F6D175
:10582000F0B441EA012141EA014122F007047FF08E
:1058300000070023F0E80256083C85EA010586EAE5
:10584000010685FA47F5A3FA87F586FA47F6A5FA21
:1058500087F68EB9EED1F0BC01F0FF0102F007022D
:1058600032B110F8013B013A83EA010313B1F8D1D8
:105870000020704701387047002D06BF35460338B9
:10588000073815F0010F07D1013015F4807F02BFF2
:10589000013015F4C03F0130F0BC0138704700BF43
:1058A000844641EA000313F003036DD1403A41D32B
:1058B00051F8043B40F8043B51F8043B40F8043BEA
:1058C00051F8043B40F8043B51F8043B40F8043BDA
:1058D00051F8043B40F8043B51F8043B40F8043BCA
:1058E00051F8043B40F8043B51F8043B40F8043BBA
:1058F00051F8043B40F8043B51F8043B40F8043BAA
:1059000051F8043B40F8043B51F8043B40F8043B99
:1059100051F8043B40F8043B51F8043B40F8043B89
:1059200051F8043B40F8043B51F8043B40F8043B79
:10593000403ABDD2303211D351F8043B40F8043B19
:1059400051F8043B40F8043B51F8043B40F8043B59
:1059500051F8043B40F8043B103AEDD20C3205D329
:1059600051F8043B40F8043B043AF9D2043208D021
:10597000D2071CBF11F8013B00F8013B01D30B8893
:1059800003806046704700BF082A13D38B078DD071
:1059900010F003038AD0C3F10403D21ADB071CBF43
:1059A00011F8013B00F8013B80D331F8023B20F8AD
:1059B000023B7BE7043AD9D3013A11F8013B00F8E6
:1059C000013BF9D20B7803704B7843708B7883706E
:1059D0006046704788420DD98B1883420AD900EB84
:1059E000020CBAB1624613F801CD02F801CD99421A
:1059F000F9D170470F2A0ED8034602F1FF3C4AB195
:105A00000CF1010C013B8C4411F8012B03F8012F20
:105A10006145F9D1704740EA01039B0750D1A2F1DB
:105A2000100370B501F1200C23F00F0501F1100EE9
:105A300000F11004AC441B095EF8105C44F8105CE3
:105A40005EF80C5C44F80C5C5EF8085C44F8085C9A
:105A50005EF8045C44F8045C0EF1100EE64504F1B7
:105A60001004E9D1013312F00C0F01EB031102F025
:105A70000F0400EB031327D0043C24F003064FEA85
:105A8000940C1E441C1F8E465EF8045B44F8045FB1
:105A9000B442F9D10CF1010402F0030203EB8403D8
:105AA00001EB840102F1FF3C4AB10CF1010C013B16
:105AB0008C4411F8012B03F8012F6145F9D170BD19
:105AC00002F1FF3C03469BE72246EBE7704700BF2D
:105AD000704700BFC36C70B505460C464BB153F818
:105AE000240080B1026843F824200023C0E9033376
:105AF00070BD2122042102F0A3FC0346E8640028C3
:105B0000EDD1002070BD012101FA04F6721D920052
